:100000000C9446030C9463030C9463030C946303F5
:100010000C9463030C9463030C9463030C946303C8
:100020000C9463030C9463030C9463030C946303B8
:100030000C9463030C9463030C9463030C946303A8
:100040000C9463030C9463030C9463030C94630398
:100050000C9463030C9463030C9463030C94630388
:100060000C9463030C9463030C9463030C94630378
:100070000C9463030C9463030C94630350696374DE
:100080006F72202D20494C49393334312064726914
:100090007665722056302E332E32000000000000AC
:1000A000000000183C3C181800180036360000000C
:1000B00000000014143E143E1414001C36307C3032
:1000C000307E0066640C0818133300386C6C396E8F
:1000D0006E3B0018180000000000000C1C181818D7
:1000E0001C0C00181C0C0C0C1C1800082A1C1422D8
:1000F0000000000008083E080800000000000000A2
:100100001818300000003E00000000000000000051
:100110001818000C0C1C183830300018246E766645
:100120002418001838181818183C003C66060C18DB
:10013000307E003C66061C06663C000E1E36667F5E
:100140000606007E60607C06663C003C60607C6663
:10015000663C007E060E0C0C1818003C66663C6679
:10016000663C003C66663E06060600000018180065
:10017000181800000018180018183000061C301C51
:1001800006000000003E003E00000000301C061C7F
:100190003000003C660C18001818001C224D554E0B
:1001A000201E001C3E36367F6363007C66667C66DC
:1001B000667C003C66606060663C007C66666666E5
:1001C000667C007E60607C60607E007E60607C603B
:1001D0006060003C6660606E663C006666667E66D7
:1001E0006666003C18181818183C001E0C0C0C0C05
:1001F0006C3800666C7870786C6600606060606077
:10020000607E0063777F6B6363630066767E7E6EDD
:100210006666003C66666666663C007C66667C6078
:100220006060003C666666666E3C067C66667C784E
:100230006C66003C66703C0E663C007E1818181810
:100240001818006666666666663C00636336361C90
:100250001C08006363636B6B36360066663C183CB3
:100260006666006666663C181818007E060C183034
:10027000607E003C30303030303C00303038181C6C
:100280000C0C003C0C0C0C0C0C3C00081422000064
:100290000000000000000000003E000C060200000C
:1002A00000000000001E3636361F0030303C363667
:1002B000363C0000001C3630361C0006061E363662
:1002C000361F0000001C363C301C000E1818183C6D
:1002D00018180000001E36361E061C30303C36361C
:1002E0003636000018001818181800000C000C0C06
:1002F0000C2C183030363C3C3636001818181818BC
:10030000180C000000766B6B6B630000003C363607
:1003100036360000001C3636361C0000003C3636EF
:10032000363C3000001E3636361E0600003C3230A9
:1003300030300000001E301C063C0000183C18182D
:10034000180C000000363636361C000000363636F3
:100350001C08000000636B6B3E14000000361C0894
:100360001C360000003636361E061C00003E0C18F7
:10037000303E000C08183018080C0008080808085F
:1003800008080018080C060C081800000030490680
:10039000000000000000000000000000181818080D
:1003A000001800363600000000000000367F3636A8
:1003B0007F36001C36307C30307E0066640C0818B6
:1003C000133300386C6C396E6E3B00181800000057
:1003D0000000000C1C1818181C0C00181C0C0C0C2D
:1003E0001C1800082A1C14220000000008083E08FF
:1003F00008000000000000001818300000003E0057
:1004000000000000000000001818000C0C1C183838
:10041000303000003C66766E663C000018381818D4
:10042000183C00003C660E3C707E00003C661C06DA
:10043000663C00001C2C4C4C7E0C00007C607C0652
:10044000663C00003C607C66663C00007E060C1842
:10045000181800003C663C66663C00003C66663E40
:10046000063C0000001818001818000000181800BA
:1004700018183000061C301C06000000003E003E2C
:1004800000000000301C061C300000007CCECE189E
:100490000018001C224D554E201E0000387CE6FE40
:1004A000E6E60000FCE6FCE6E6FC00007CE6E0E0B8
:1004B000E67C0000FCE6E6E6E6FC0000FEE0FCE090
:1004C000E0FE0000FEE0FCE0E0E000007CE6E0EEA4
:1004D000E67C0000E6E6FEE6E6E600007C3838381A
:1004E000387C0000FE1C1CDCDC780000E6ECF8F830
:1004F000ECE60000E0E0E0E0E6FE0000C6EEFED63E
:10050000C6C60000E6F6FEEEE6E600007CE6E6E69D
:10051000E67C0000FCE6E6FCE0E000007CE6E6EEBF
:10052000EE7C0E00FCE6E6FCECE600007CE27C0ED5
:10053000EE7C0000FE38383838380000E6E6E6E6A3
:10054000E67C0000E6E6E6E67C380000C6C6D6D6C5
:10055000EEC60000EEF4783C5EEE0000C6EE7C389D
:1005600038380000FE1C3870E0FE003C303030307F
:10057000303C00303038181C0C0C003C0C0C0C0CBF
:100580000C3C0008142200000000000000000000E5
:10059000003E000C0602000000000000007CECECB5
:1005A000EC760000E0E0FCEEEEFC0000007CEEE00B
:1005B000EE7C00000E0E7EEEEE7E0000007CEEFE75
:1005C000E07E00003C7670FE707000007CEEEE7EF7
:1005D0000EEE7C00E0E0FCEEEEEE00003800383875
:1005E000383800001C001C1CDCDC7800E0E0E6F879
:1005F000ECE60000783838383838000000FCD6D6F1
:10060000D6D6000000FCE6E6E6E60000007CE6E662
:10061000E67C000000FCEEEEFCE0E000007EEEEE8A
:100620007E0E0E0000EEF8F0E0E00000007EE0FE3E
:100630000EFC00007070FE70763C000000EEEEEEE6
:10064000EE7E000000C6C6EE7C38000000C6D6D69E
:10065000EEC6000000EE74385CEE000000C66E3C92
:100660003870E00000FE1C3870FE000C08183018CE
:10067000080C00080808080808080018080C060CF0
:1006800008180000003049060000000011241FBEB9
:10069000CFEFD0E1DEBFCDBF13E0A0E0B1E0E6E5F3
:1006A000F8E202C005900D92A238B107D9F713E025
:1006B000A2E8B3E001C01D92A338B107E1F70E94A0
:1006C000C1110C9429140C94000090E0887F907064
:1006D000880F991F82959295907F9827807F982701
:1006E00070E06C7F7070682B792B660F771F660F38
:1006F000771F660F771F46954695469550E0642B09
:10070000752BCB010895149888B91398139A149AED
:10071000089588B91398139A089598B91398139A5D
:1007200088B91398139A0895159886B1159A089563
:10073000159896B1159A159886B1159A392F20E01B
:10074000280F311DC9010895181614F4119A08953F
:10075000882329F082B192E0892782B908951198FF
:100760000895CF93DF93EC01A62FAC01372F3323ED
:1007700009F48DC0FA0120E1808188B91398139A99
:10078000818188B91398139A828188B91398139A32
:10079000838188B91398139A848188B91398139A1E
:1007A000858188B91398139A868188B91398139A0A
:1007B000878188B91398139A808588B91398139AFA
:1007C000818588B91398139A828588B91398139AEA
:1007D000838588B91398139A848588B91398139AD6
:1007E000858588B91398139A868588B91398139AC2
:1007F000878588B91398139A808988B91398139AB2
:10080000818988B91398139A828988B91398139AA1
:10081000838988B91398139A848988B91398139A8D
:10082000858988B91398139A868988B91398139A79
:10083000878988B91398139A808D88B91398139A69
:10084000818D88B91398139A828D88B91398139A59
:10085000838D88B91398139A848D88B91398139A45
:10086000858D88B91398139A868D88B91398139A31
:10087000878D88B91398139A2150B096222309F0D6
:100880007BCF315040505E4F332309F073CF972F09
:10089000990F80E0662349F0FE01E80FF91F81916E
:1008A00088B91398139AA150D1F7DF91CF91089589
:1008B0001F93B42F152FAB01149888B91398139A6E
:1008C000149AAB2F912F992309F48DC0FB0120E1DD
:1008D000818188B91398139A808188B91398139AE3
:1008E000838188B91398139A828188B91398139ACF
:1008F000858188B91398139A848188B91398139ABB
:10090000878188B91398139A868188B91398139AA6
:10091000818588B91398139A808588B91398139A9A
:10092000838588B91398139A828588B91398139A86
:10093000858588B91398139A848588B91398139A72
:10094000878588B91398139A868588B91398139A5E
:10095000818988B91398139A808988B91398139A52
:10096000838988B91398139A828988B91398139A3E
:10097000858988B91398139A848988B91398139A2A
:10098000878988B91398139A868988B91398139A16
:10099000818D88B91398139A808D88B91398139A0A
:1009A000838D88B91398139A828D88B91398139AF6
:1009B000858D88B91398139A848D88B91398139AE2
:1009C000878D88B91398139A868D88B91398139ACE
:1009D0002150B096222309F07BCF915060507E4F7A
:1009E000992309F073CF712F770F60E0BB2371F06B
:1009F000FA01E60FF71F818188B91398139A808155
:100A000088B91398139A3296A150A9F71F910895A7
:100A1000942F149888B91398139A149A68B9552387
:100A200029F180E11398139A1398139A1398139A43
:100A30001398139A1398139A1398139A1398139A56
:100A40001398139A1398139A1398139A1398139A46
:100A50001398139A1398139A1398139A1398139A36
:100A60001398139A8150F1F65150D9F6442321F08E
:100A70001398139A9150E1F70895942F149888B918
:100A80001398139A149A552309F467C080E178B932
:100A90001398139A68B91398139A78B91398139AFC
:100AA00068B91398139A78B91398139A68B9139878
:100AB000139A78B91398139A68B91398139A78B956
:100AC0001398139A68B91398139A78B91398139ACC
:100AD00068B91398139A78B91398139A68B9139848
:100AE000139A78B91398139A68B91398139A78B926
:100AF0001398139A68B91398139A78B91398139A9C
:100B000068B91398139A78B91398139A68B9139817
:100B1000139A78B91398139A68B91398139A78B9F5
:100B20001398139A68B91398139A78B91398139A6B
:100B300068B91398139A78B91398139A68B91398E7
:100B4000139A78B91398139A68B91398139A815025
:100B500009F09DCF515009F099CF442341F078B965
:100B60001398139A68B91398139A9150C1F708957E
:100B7000149888B91398139A149ACB01642F70E0D3
:100B80000E94B1030895149888B91398139A149A7F
:100B900018B817B81598159A442349F0FB01159811
:100BA00086B1159A81938E2F861B8417C0F38FEF21
:100BB00087B908951498EAE2E8B91398139A149A39
:100BC00078B91398139A68B91398139A38B9139887
:100BD000139A28B91398139A14982BE228B91398EA
:100BE000139A149A98B91398139A88B91398139A68
:100BF00058B91398139A48B91398139A0895AF9255
:100C0000BF92CF92DF92EF92FF920F931F93CF93F9
:100C1000DF935801DC01FA0126173707B0F56901A7
:100C20008B01EA17FB07B0F57F01ED01B601C701A3
:100C30009801AE010E94DA052196CE19DF09BE01A6
:100C400080E090E00F5F1F4F0C191D09980140E0F4
:100C500050E00E94B2139B01AC01203080E03807C5
:100C600081E0480780E05807C0F48CE2B501A90193
:100C70000E943D05DF91CF911F910F91FF90EF9062
:100C8000DF90CF90BF90AF9008956B018901EA1774
:100C9000FB0750F27D01EF01C9CFA9014F5F5F4F04
:100CA0008CE2B5010E943D058CE3B5014FEF5FEF8B
:100CB0000E943D05DFCFCF93DF93EC01809182034B
:100CC00080FD19C060E070E080E090E02FEE30E041
:100CD0004FE351E00E94DA058CE2BE0140E050E8AB
:100CE0000E943D058CE3BE0140E05CEA0E943D05A8
:100CF000DF91CF91089560E070E080E090E02FE315
:100D000031E04FEE50E00E94DA05E6CF982F1498BC
:100D100086E388B91398139A149A9130A1F0913010
:100D200038F488E488B91398139A9093820308954D
:100D3000923081F09330C9F788EE88B91398139AEE
:100D400090938203089588E288B91398139A909338
:100D50008203089588E888B91398139A90938203C0
:100D6000089580E00E94860660E070E080E090E0F8
:100D70002FE030E04FE750E00E94DA058CE260E0BF
:100D800070E040E058E00E94580460E270E080E0CB
:100D900090E020EA30E04FEF50E00E94DA0514982E
:100DA0008CE288B91398139A149A20E030E0F90184
:100DB000EE0FFF1F85919591A591B49198B9139865
:100DC000139A88B91398139A2F5F3F4F37FFEFCFCD
:100DD0000895EF92FF920F931F938B019C017A016C
:100DE000A90198010E94DA0514988CE288B9139839
:100DF000139A149AF8B81398139AE8B81398139A98
:100E00001F910F91FF90EF9008954F925F926F9214
:100E10007F928F929F92AF92BF92CF92DF92EF928A
:100E2000FF920F931F93CF93DF9369017A015801CB
:100E30009B01AC018601E7014B018C0C9D1C7C01E0
:100E4000EC0EFD1EB401C7012901401A510A3A01F6
:100E50006C1A7D0AA5010E94E906CD28E9F42097C5
:100E6000A9F4012B11F0CD2BE9F4DF91CF911F9163
:100E70000F91FF90EF90DF90CF90BF90AF909F9039
:100E80008F907F906F905F904F900895B401C30151
:100E9000A5010E94E906E5CFB201C701A5010E94A4
:100EA000E906DDCFB201C301A5010E94E906DDCF4D
:100EB0004F925F926F927F928F929F92AF92BF926A
:100EC000CF92DF92EF92FF920F931F93CF93DF9316
:100ED0002B013C0149015A010E940507A814B904DD
:100EE00031F09501A401C301B2010E940507DF9111
:100EF000CF911F910F91FF90EF90DF90CF90BF9017
:100F0000AF909F908F907F906F905F904F900895DB
:100F10002F923F924F925F926F927F928F929F9209
:100F2000AF92BF92CF92DF92EF92FF920F931F93F7
:100F3000CF93DF932B013C0119014423C9F1842F86
:100F400090E0CC27DD27C81BD90B4C01AA24BB2479
:100F500001C05C0175016401C301B201A7019601E2
:100F600081010E945807C5010196C80FD91FCA0DFB
:100F7000DB1DD7FD07C0C819D9090894810891085D
:100F8000C819D9098816990620F7DF91CF911F91CA
:100F90000F91FF90EF90DF90CF90BF90AF909F9018
:100FA0008F907F906F905F904F903F902F9008951B
:100FB000A9010E94E906E9CFDF93CF93CDB7DEB751
:100FC0006E970FB6F894DEBF0FBECDBF85B78068B1
:100FD00085BF85B7806885BF8FE781B98FEF87B9F7
:100FE00088E382B980E89BEB0197F1F7129A20E041
:100FF00035E04CE251E0CA010197F1F72150304051
:10100000D1F7149888E288B91398139A149A14980F
:1010100081E188B91398139A149A14988BEC88B9C3
:101020001398139A149A91E098B91398139A1498F4
:1010300080EC88B91398139A149A26E228B9139869
:10104000139A88E088B91398139A149881EC88B998
:101050001398139A149A80E188B91398139A1498E4
:1010600085EC88B91398139A149A85E388B9139874
:10107000139A8EE388B91398139A149886E388B963
:101080001398139A149A88E488B91398139A1498A9
:1010900080EB88B91398139A149A8AE488B9139844
:1010A000139A149881EB88B91398139A149A18B864
:1010B0001398139A8BE188B91398139A149886EBB6
:1010C00088B91398139A149A8AE088B91398139AD6
:1010D00082E888B91398139A87E288B91398139A0B
:1010E00018B81398139A149887EC88B91398139A20
:1010F000149A85EB88B91398139A149886EF88B9D7
:101100001398139A149A98B91398139A18B81398B5
:10111000139A18B81398139A149882EF88B91398F1
:10112000139A149A18B81398139A149828B9139804
:10113000139A149A98B91398139A14988AE388B951
:101140001398139A149A85E588B91398139ABE01D7
:101150006F5F7F4FDB01E3E7F3E08FE001900D92DB
:101160008150E1F780EE4FE00E94B805BE01605F5C
:101170007F4FDB01E4E6F3E08FE001900D928150B8
:10118000E1F781EE4FE00E94B805149884E388B936
:101190001398139A149A149884EB88B91398139A95
:1011A000149A18B81398139A149887EB88B913985F
:1011B000139A149A87E088B91398139A80E090E004
:1011C0000E945B06149889E288B91398139A149ABE
:1011D0002CE231E04CE251E0CA010197F1F72150D5
:1011E0003040D1F781E00E94A4036E960FB6F894C8
:1011F000DEBF0FBECDBFCF91DF9108952F923F92FA
:101200004F925F926F927F928F929F92AF92BF9216
:10121000CF92DF92EF92FF920F931F93DF93CF93C2
:10122000CDB7DEB7A4970FB6F894DEBF0FBECDBF23
:10123000382FD92E7A018B01722EDA01B80166247B
:101240006394622283E0821708F46BC092E029174E
:1012500008F43BC1E32FFD2D208031804280538074
:10126000C480D58087818CA396819BA381858AA326
:10127000908599A388249924AA24BB2411979D01C1
:10128000220D331D119661507040AB01440D551D68
:101290006F5F7F4F7D018B01C801B7010E94DA05A6
:1012A00014988CE288B91398139A149AF3E0F715FE
:1012B00008F448C082E0781608F4F7C0662009F404
:1012C00094C1F6014491429C9001439C300D529C84
:1012D000300D112490E815C0FCA1F8B91398139AA9
:1012E0008BA188B91398139A969549F4662009F44E
:1012F00075C10894C11CD11CF601449190E821509D
:1013000030402115310509F45FC0892F842321F76E
:10131000EAA1E8B91398139AF9A1F8B91398139AA6
:10132000E3CFE7E0E21708F4A5CF832F9C01590132
:10133000F9012080318042805380C480D580882488
:1013400099249CCFE5E0E71508F457C0F501268104
:101350003781429CA001439C500D529C500D11249A
:101360004115510589F1662009F4FCC0F60184910C
:1013700041505040E82FE295EF708F7009F4FCC0A7
:10138000682F70E04617570708F004C1F0E0EE0F31
:10139000FF1FE20FF31F6081E18180E090E050E0E9
:1013A0004F5F5F4FE8B91398139A68B91398139A6F
:1013B000019684179507B1F740E050E00894C11CEE
:1013C000D11C4115510579F6A4960FB6F894DEBFED
:1013D0000FBECDBFCF91DF911F910F91FF90EF9086
:1013E000DF90CF90BF90AF909F908F907F906F9045
:1013F0005F904F903F902F900895F7E0F71520F3FE
:10140000F501468157818E010F5F1F4FD801BE0144
:101410006F5D7F4FFA01849131964E5F5F4FE4918B
:10142000382F20E08E2F90E0822B932B8D939D936D
:10143000A617B70779F7429C9001439C300D529C48
:10144000300D11242115310509F4BECF662009F4B1
:1014500071C0F601849121503040E82FE295EF7081
:101460008F7009F471C0482F50E02417350708F039
:10147000A3C0F0E0EE0FFF1FE00FF11F4081E181FC
:1014800080E090E030E02F5F3F4FE8B91398139A67
:1014900048B91398139A019682179307B1F720E081
:1014A00030E00894C11CD11CCDCF7720E1F4F401C9
:1014B00064817581429CA001439C500D529C500D4B
:1014C00011248CE20E9458047FCF832F9D2D9C0114
:1014D0004901F9012080318042805380C480D58049
:1014E000AA24BB24CBCE91E0791609F06DCF429CA3
:1014F0009001439C300D529C300D11242115310573
:1015000009F462CF0894C11CD11CF601849108949F
:10151000C108D108F601949188B91398139A98B923
:101520001398139A82E090E0C80ED91E21503040E3
:1015300049F74ACFF601808121503040E82FE295EB
:10154000EF708F7009F08FCFF0E0EE0FFF1FE00F0C
:10155000F11F9081818188B91398139A98B91398D3
:10156000139A9FCFF601808141505040E82FE295B9
:10157000EF708F7009F004CFF0E0EE0FFF1FE20F65
:10158000F31F9081818188B91398139A98B91398A1
:10159000139A14CFF0E0EE0FFF1FE20FF31F9081BC
:1015A000E181E8B91398139A98B91398139A815066
:1015B000C0F7461B570B02CFF0E0EE0FFF1FE00F06
:1015C000F11F9081E181E8B91398139A98B91398A3
:1015D000139A8150C0F7241B350B63CF0894C11CAC
:1015E000D11CF601408190E88ACEF60140816BCE95
:1015F0008F929F92AF92BF92CF92DF92EF92FF9223
:101600000F931F93CF93DF935C01CB01BA01FC2CA6
:1016100048018901F818E21ACF2CDD249601260F23
:10162000371FCE2DD0E0AE01480F591F0E94DA05BA
:10163000F6013196D5014D915C911197842F90E080
:10164000E817F9070CF03DC0D50114962D913C9197
:10165000159714988CE288B91398139A149AE39406
:1016600009F449C0409FB001419F700D509F700D1B
:101670001124680D791D660F771F620F731F960185
:1016800020953095240F351F220F331FAF01440FD3
:10169000551FBFEFFB1681F0FB01640F751F8181A1
:1016A00088B91398139A808188B91398139A32963F
:1016B000E617F707A1F7BF01EA94E9F0620F731F7D
:1016C000E8CF000F111F0E9FC0010F9F900D1E9FAE
:1016D000900D112414966D917C911597680F791FC8
:1016E0002196CE9FA001CF9F500DDE9F500D11245B
:1016F0008CE20E945804DF91CF911F910F91FF90CF
:10170000EF90DF90CF90BF90AF909F908F90089513
:101710002F923F924F925F926F927F929F92AF92E1
:10172000BF92CF92DF92EF92FF920F931F93CF93CE
:10173000DF93EC012A013B01922ED501F60117013E
:10174000580181E0981609F47AC00A2F0E191C2D51
:101750001A198881C82ECC0C202F30E02F5F3F4F04
:101760007901EE0CFF1C492D50E0D3011197812F18
:1017700090E00196849FF001859FF00D949FF00DFD
:101780001124B20161507040429FC001439F900DEF
:10179000529F900D11249B01280F391FAD014E0F50
:1017A0005F1FC301B2010E94DA056C817D8128812F
:1017B000398114988CE288B91398139A149A1F3FB0
:1017C00009F444C02A9DA0012B9D500D3A9D500D57
:1017D0001124420D531D440F551F460F571FB92D9D
:1017E000B1508E2D90E09701CC27DD27C81BD90B77
:1017F000EC2CFF249920E9F0AB2F0F3FA1F0FA0168
:10180000BA01620F731F51814081992D58B9139805
:10181000139A48B91398139A9150C1F73296E61764
:10182000F70789F7AF014C0F5D1FAA2311F0A150F4
:10183000E4CF112359F04E0D5F1D1150DBCFCE01C7
:10184000980187016D017F010E94F80ADF91CF9115
:101850001F910F91FF90EF90DF90CF90BF90AF90CE
:101860009F907F906F905F904F903F902F90089542
:101870002F923F924F925F926F927F928F929F92A0
:10188000AF92BF92CF92DF92EF92FF920F931F938E
:10189000DF93CF93CDB7DEB7A6970FB6F894DEBF30
:1018A0000FBECDBF382F6A017B01922E013031F17E
:1018B000002331F1822F81708EA3A3E0A217C8F11B
:1018C000B2E02B1708F4C5C0832F9C013901F90140
:1018D00020813181A280B38054808580F781FDA36F
:1018E000D30116962C90169719963C901997189636
:1018F0004C901CA21BA21AA219A234C00E94FE087E
:10190000A6960FB6F894DEBF0FBECDBFCF91DF9184
:101910001F910F91FF90EF90DF90CF90BF90AF900D
:101920009F908F907F906F905F904F903F902F90FF
:101930000895F7E0F21708F485C0832F9C013AA3BD
:1019400029A3D9012D913C9111971296AD90BC908D
:10195000139714965C90149715968C901CA21BA25A
:101960006624772410E0D7011197A09EF001A19E74
:10197000F00DB09EF00D1124B60161507040209F13
:10198000C001219F900D309F900D11249B01280FC5
:10199000391FAD014E0F5F1FC701B6010E94DA0566
:1019A00014988CE288B91398139A149AF3E0F915F5
:1019B00008F46BC082E0981608F417C160E8F62EB0
:1019C00006C00894A108B1085E2E8F2EF32EA11434
:1019D000B10409F495CF852D982DFC013F2DB80158
:1019E0006115710571F3D3014D915C91BEA1BB23CB
:1019F00009F433C2A49141155105E1F0C801232F28
:101A00002A23009761F02223A1F1BDA1B8B9139850
:101A1000139A28B81398139A01970097A1F736954F
:101A200031F48EA1882369F13196A49130E84150B8
:101A3000504021F76150704099F2852D982DFC019E
:101A40003F2DCECF1CA21BA2662477241AA219A276
:101A500089CF832F9C013CA32BA3F90120813181E5
:101A6000A280B38054808580662477241AA219A2AC
:101A700079CF38B81398139A48B81398139A0197E6
:101A8000CCCF3196A08130E8D2CFB5E0B91508F4BB
:101A90001DC1A9A1BAA116966D907C901797332409
:101AA0003A94442407C00894A108B1085A2E8B2EFA
:101AB000392C472EA114B10409F422CF852D982D7D
:101AC000FC01DF01632D742D680199249A94C114DF
:101AD000D10449F3E9A1FAA1408151814115510591
:101AE00069F1653160F0FEA1FF2309F47CC0FD01BE
:101AF00084911196782F72957F70682F6F707A019C
:101B00000894E108F108662339F50115110589F0FB
:101B1000E72FF0E0EE0FFF1FE60DF71D308121816A
:101B2000C80128B91398139A38B91398139A0197D2
:101B3000C1F7A7016FEF4115510599F60894C10847
:101B4000D108C114D10409F4C2CF852D982DFC0110
:101B5000DF01632D742DBBCF262F30E0E216F30694
:101B600000F5409FC001419F900D509F900D1124A2
:101B7000009781F0E72FF0E0EE0FFF1FE60DF71D55
:101B80003081218128B91398139A38B91398139A80
:101B90000197C1F79E2C9094960E40E050E06FEFB5
:101BA000CACF2F5F3F4F209FC001219F900D309FD4
:101BB000900D112421503040009781F0E72FF0E084
:101BC000EE0FFF1FE60DF71D5081418148B91398B4
:101BD000139A58B91398139A0197C1F7A701421B9A
:101BE000530B6FEFA8CF8C9184CF992051F0A1E0D7
:101BF0009A1609F085CE39C00894A108B108522E72
:101C0000832EA114B10409F47BCE852D982D9C015F
:101C1000D801109789F3EBA1FCA1E080F180E114D9
:101C2000F104C1F0F901B7010115110559F0518115
:101C30004081C80158B91398139A48B91398139A58
:101C40000197C1F732966150704071F7EE0CFF1C9E
:101C50002E0D3F1D1197E9F2852D982D9C01D9CFAE
:101C60000894A108B108522E832EA114B10409F4DE
:101C700047CE852D982D9C01D801109789F3EBA1B3
:101C8000FCA1E080F180E114F104D1F0F901B70189
:101C90000115110569F03196C801549131974491AD
:101CA00058B91398139A48B91398139A0197C1F722
:101CB00032966150704061F7EE0CFF1C2E0D3F1DF7
:101CC0001197D9F2852D982D9C01D7CFE7E0E91522
:101CD00008F416CEA9A1BAA116964D915C9117975A
:101CE0001E010894211C311CD101BE016F5D7F4F84
:101CF000FA01849131964E5F5F4FE491382F20E0D6
:101D00008E2F90E0822B932B8D939D93A617B70770
:101D100079F766246A94772407C00894A108B1086B
:101D20005A2E8B2E692C772EA114B10409F4E8CD1C
:101D3000852D982DFC01DF01B301680199249A9447
:101D4000C114D10451F3E9A1FAA140815181411597
:101D5000510569F1653160F0FEA1FF2309F47BC0F4
:101D6000FD0184911196782F72957F70682F6F70A6
:101D70007A010894E108F108662331F5011511058F
:101D800089F0E72FF0E0EE0FFF1FE20DF31D308129
:101D90002181C80128B91398139A38B91398139A56
:101DA0000197C1F7A7016FEF4115510599F6089406
:101DB000C108D108C114D10409F4C2CF852D982DD2
:101DC000FC01DF01B301BCCF262F30E0E216F306A1
:101DD00000F5409FC001419F900D509F900D112430
:101DE000009781F0E72FF0E0EE0FFF1FE20DF31DEB
:101DF0003081218128B91398139A38B91398139A0E
:101E00000197C1F79E2C9094960E40E050E06FEF42
:101E1000CBCF2F5F3F4F209FC001219F900D309F60
:101E2000900D112421503040009781F0E72FF0E011
:101E3000EE0FFF1FE20DF31D5081418148B9139849
:101E4000139A58B91398139A0197C1F7A701421B27
:101E5000530B6FEFA9CF8C9185CFA081CCCD6F9222
:101E60007F928F929F92AF92BF92CF92DF92EF922A
:101E7000FF920F931F93A82E3A014B01B22ED32E3F
:101E8000BA01F40180528F3568F01F910F91FF90D5
:101E9000EF90DF90CF90BF90AF909F908F907F900A
:101EA0006F9008958C2D90E0880F991F880F991FCF
:101EB000880F991F615070409B01280F391F31977F
:101EC000AF01480F591FC401B3010E94DA056A2D02
:101ED00070E060527040660F771F660F771F660FC5
:101EE000771F6E0D7F1D14988CE288B91398139A92
:101EF000149AA0E0B0E0FB01EA0FFB1F4491CC2054
:101F000019F150E030E820E0932F942380E009C0DD
:101F1000D8B81398139AB8B81398139A8F5F8C1582
:101F200058F49923A9F718B91398139A08B9139874
:101F3000139A8F5F8C15A8F32F5F283011F0369518
:101F4000E3CF5F5F5C15F0F21196A830B10599F60A
:101F50009CCF2F923F924F925F926F927F928F927F
:101F60009F92AF92BF92CF92DF92EF92FF920F9328
:101F70001F93DF93CF93CDB7DEB727970FB6F894B3
:101F8000DEBF0FBECDBF3C01552E3A8329831C8393
:101F90000B8317014C2C842F4D838C2C9924880C97
:101FA000991C880C991C880C991C952F9F838E83F3
:101FB000262F372FC9015C01DD24D3949D2D91502C
:101FC000F301E90FF11D8081882391F08A3051F5EA
:101FD000A80CB91C8D81952D9C013F832E83D39431
:101FE0009D2D9150F301E90FF11D8081882371F738
:101FF000892F27960FB6F894DEBF0FBECDBFCF91C5
:10200000DF911F910F91FF90EF90DF90CF90BF90E5
:10201000AF909F908F907F906F905F904F903F9088
:102020002F9008954E815F81B50129813A810B81FE
:102030001C817101C42C0E942F0F8E819F81880DFD
:10204000991D9F838E83D394CBCF4F925F926F92D3
:102050007F928F929F92AF92BF92CF92EF92FF9218
:102060000F931F93DF93CF93CDB7DEB727970FB6AC
:10207000F894DEBF0FBECDBF3A014B0129015E01CE
:102080000894A11CB11CB5014AE050E00E94F8136D
:10209000C501B401A30192010E94A90F27960FB6B2
:1020A000F894DEBF0FBECDBFCF91DF911F910F918E
:1020B000FF90EF90CF90BF90AF909F908F907F90C8
:1020C0006F905F904F9008952F923F924F925F9242
:1020D0006F927F928F929F92AF92BF92CF92DF9238
:1020E000EF92FF920F931F93DF93CF93CDB7DEB79D
:1020F00027970FB6F894DEBF0FBECDBF4C01D52E8B
:102100003A83298318012701CB82842F4C836C2CBE
:102110007724660C771C660C771C660C771C952F51
:102120009F838E83262F372FC9015C01F401089409
:10213000811C911C94919A3041F4A60CB71C8C819F
:102140009D2D9C013F832E83F1CF892F4E815F818E
:10215000B50129813A8181017201CB809D830E9462
:102160002F0F9D81992339F08E819F81860D971DB8
:102170009F838E83DBCF80E027960FB6F894DEBF77
:102180000FBECDBFCF91DF911F910F91FF90EF90C8
:10219000DF90CF90BF90AF909F908F907F906F9087
:1021A0005F904F903F902F9008953F924F925F9293
:1021B0006F927F928F929F92AF92BF92CF92DF9257
:1021C000EF92FF920F931F93CF93DF934901380152
:1021D00027013C2C5A01EB01982F9F7082958F703C
:1021E0009A3048F127E3D22ED90E8A3048F5805D27
:1021F000A501BE01940183017201C32C0E942F0F1F
:10220000A501485F5F4FBE018D2D94010E942F0FE5
:1022100082E0DF91CF911F910F91FF90EF90DF90BF
:10222000CF90BF90AF909F908F907F906F905F9076
:102230004F903F90089500E3D02ED90E8A30B8F227
:10224000895CD6CF2F923F924F925F926F927F928E
:102250008F929F92AF92BF92CF92DF92EF92FF92B6
:102260000F931F93DF93CF93CDB7DEB72E970FB6A3
:10227000F894DEBF0FBECDBF3C01D42EB52E6D87C6
:102280007E87190119870887FB86EA86CC868A2C07
:10229000AA2009F46FC04D2C5B2CC301BE016F5FF7
:1022A0007F4F4AE050E00E94F8138981882309F4A7
:1022B00066C099249394E1E0F0E0EC0FFD1FE90D76
:1022C000F11D80818823B1F7981408F056C04C8521
:1022D000642E7724660C771C660C771C660C771CC2
:1022E000D92C520180E2A5016D857E85910108857A
:1022F0001985EA84FB84CC840E942F0FD394A60C0A
:10230000B71CD81478F39301240D351D9094980CC4
:10231000892D90E0AC01469DC001479D900D569DD2
:10232000900D1124280F391FCE010196A9016D854A
:102330007E85910108851985EA84FB84CC840E94FE
:10234000A90F2E960FB6F894DEBF0FBECDBFCF916A
:10235000DF911F910F91FF90EF90DF90CF90BF9092
:10236000AF909F908F907F906F905F904F903F9035
:102370002F9008950E9425108ECF9201D5CF9924D9
:10238000A3CF2F923F924F925F926F927F928F9244
:102390009F92AF92BF92CF92DF92EF92FF920F93F4
:1023A0001F93DF93CF93CDB7DEB72E970FB6F89478
:1023B000DEBF0FBECDBF279A80E00E94DC072F9AB8
:1023C00081E00E9486068CE790E040E050E060E00B
:1023D00070E020E038EF00E010E0BBE9EB2EB0E069
:1023E000FB2ECC24C3940E94641080E091E040E076
:1023F00050E068E070E020E030E000EE1AEF0E946C
:10240000A90F60E070E088E190E02FE730E047E955
:1024100050E006EC11E30E94FF0566247724D62CD9
:10242000DD0CF8E14F2E512C430152018D2DB501E9
:10243000A40120EE3AEF00E010E0ABE9EA2EA0E0C4
:10244000FA2ECC24C3940E942F0F88E090E0480E0F
:10245000591ED39498E94916510431F7A8E0B0E029
:102460006A0E7B1EB0E46B167104C9F689E091E038
:1024700040E450E068E070E020E030E00FE114E874
:10248000E3E9EE2EE3E0FE2ECC24C3940E94A90FD4
:102490005524B0E46B2E712CD52CF8E12F2E312C65
:1024A000430151018D2DB501A4012FE134E800E075
:1024B00010E0A3E9EA2EA3E0FA2ECC24C3940E94F4
:1024C0002F0FE8E0F0E02E0E3F1ED394F8E92F1610
:1024D000310431F780E1580EA8E0B0E06A0E7B1EAF
:1024E000B0E85B16C9F688E593E040E050E068E9A3
:1024F00070E020E001E00E94380C88E593E040E0C5
:1025000050E068EA70E020E00E94380C88E593E033
:1025100040E050E068EB70E021E0EE24FF2487010A
:10252000E7E0AE2EB12CE7E0CE2ED12C0E94880B36
:1025300088E593E040E150E068EB70E021E038E0AE
:10254000E32EF12C012D112DBFE0AB2EB12CB7E005
:10255000CB2ED12C0E94880B88E593E040E050E020
:1025600068EC70E021E0E12CF12CA8E00A2F112D9D
:10257000F7E0AF2EB12CFFE0CF2ED12C0E94880BBC
:1025800088E593E040E150E068EC70E021E0E8E0AD
:10259000EE2EF12CE8E00E2F112D3FE0A32EB12CF2
:1025A0003FE0C32ED12C0E94880B02E0E02E10E108
:1025B000D12EAA24BB2480E290E06E2D70E00E9410
:1025C000D113F62E662381F0CE2CC69418E94D2D3A
:1025D000612F8EE593E050E070E020E00C2D0E942A
:1025E000380C1E0DFA9499F78E2D880F0894A11CB3
:1025F000B11CE5E0AE16B10419F0DE0CE82EDBCF1D
:1026000088E593E040E550E068E970E020E002E012
:102610000E94380C80E890E09C838B831A82198298
:10262000E981FA813396F887EF8388E590E09E830D
:102630008D831E861D86AB81BC81BA87A987ED81FB
:10264000FE81FC87EB8729803A804D845E846F8011
:102650007884B3E08B2E912C840C951C88E593E054
:1026600049855A856B857C8524E08201710164016E
:1026700053010E94880BAD81BE815296BE83AD830B
:10268000ED85FE853496FE87ED87A03AB10599F673
:102690008B819C8142969C838B83A981BA811496FD
:1026A000BA83A983883C910509F0BACF82E191E011
:1026B00040E850E068E070E02FEF3FEF00E010E00E
:1026C000ABE9EA2EA0E0FA2EF2E0CF2E0E94A90F8D
:1026D0008EE191E040E850E068E170E020E038EF02
:1026E000E4E0CE2E0E94A90F8CE790E040E050E09D
:1026F00060E070E020EE37E0CC24C3940E946410C8
:1027000088E291E040E050E067EE70E02FE138EFC2
:102710000E94A90F87E391E048E750E067EE70E080
:102720002FE138EF0E94A90F2F984424552410E878
:10273000612E712CB2EB8B2E912CC201B401A3013E
:102740002FEF37E000E010E0ABE9EA2EA0E0FA2E30
:10275000F4E0CF2EE6E0AE2E0E9422110894411C38
:10276000511CE5CF629FD001739FF001829FE00D65
:10277000F11D649FE00DF11D929FF00D839FF00D00
:10278000749FF00D659FF00D9927729FB00DE11DAC
:10279000F91F639FB00DE11DF91FBD01CF01112489
:1027A000089597FB092E07260AD077FD04D00CD098
:1027B00006D000201AF4709561957F4F0895F6F7C2
:1027C000909581959F4F0895AA1BBB1B51E107C0AF
:1027D000AA1FBB1FA617B70710F0A61BB70B881FB1
:1027E000991F5A95A9F780959095BC01CD01089540
:1027F000FB019F01E8944230C4F04532B4F44A3002
:1028000029F497FB1EF4909581959F4F642F7727AD
:102810000E94E413805D8A330CF0895D8193CB01C3
:102820000097A1F716F45DE251931082C9010C9450
:102830001914DC01FC01672F71917723E1F73297BE
:1028400004C07C916D9370836291AE17BF07C8F38B
:062850000895F894FFCF8B
:1028560020204D61736820200020204F7279784235
:10286600200048656C6C6F20776F726C640047615E
:102876006D650A4F766572004C617374204D6F6406
:1028860069666965643A0057656420446563203269
:10289600312032323A30303A323620323031360058
:1028A600E00700000000000000000000000000003B
:1028B6000000000000000000000000000000E0072B
:1028C60000000000000000000000000000F800F812
:1028D60000F800F800000000000000000000000002
:1028E600000000000000000000F800F800F800F802
:1028F60000F800F800F800F80000000000000000F2
:1029060000000000000000F800F800F800F800F8E9
:1029160000F800F800F800F800F8000000000000D9
:102926000000000000F800F800F800F800F800F8D1
:1029360000F800F800F800F800F800F800000000C1
:102946000000000000F800F8FFFFFFFF00F800F8A5
:1029560000F800F8FFFFFFFF00F800F80000000095
:102966000000000000F8FFFFFFFFFFFFFFFF00F879
:1029760000F8FFFFFFFFFFFFFFFF00F80000000069
:10298600000000F800F8FFFFFFFFFFFFFFFF00F861
:1029960000F8FFFFFFFFFFFFFFFF00F800F8000051
:1029A600000000F800F8FFFF1F001F00FFFF00F8FF
:1029B60000F8FFFF1F001F00FFFF00F800F80000EF
:1029C600000000F800F800F81F001F0000F800F8EB
:1029D60000F800F81F001F0000F800F800F80000DB
:1029E600000000F800F800F800F800F800F800F819
:1029F60000F800F800F800F800F800F800F8000009
:102A0600000000F800F800F800F800F800F800F8F8
:102A160000F800F800F800F800F800F800F80000E8
:102A2600000000F800F800F800F800F800F800F8D8
:102A360000F800F800F800F800F800F800F80000C8
:102A4600000000F800F8000000F800F800F80000A8
:102A5600000000F800F800F8000000F800F8000098
:102A6600000000F800000000000000F80000000070
:102A76000000000000F800000000000000F8000060
:102A8600E007000000000000000000000000000059
:102A96000000000000000000000000000000E00749
:102AA600FFFF00000000FFFF1000100050010200B1
:102AB600020050030025270510093A784D05180D28
:102AC600383A1F1F1A180A0F064587320A070207E7
:022AD6000500F9
:00000001FF
