:100000000C9446030C9463030C9463030C946303F5
:100010000C9463030C9463030C9463030C946303C8
:100020000C9463030C9463030C9463030C946303B8
:100030000C9463030C9463030C9463030C946303A8
:100040000C9463030C9463030C9463030C94630398
:100050000C9463030C9463030C9463030C94630388
:100060000C9463030C9463030C9463030C94630378
:100070000C9463030C9463030C94630350696374DE
:100080006F72202D20494C49393334312064726914
:100090007665722056302E332E316200000000004B
:1000A00000000000183C3C1818001800363600000C
:1000B0000000000014143E143E1414001C36307C62
:1000C00030307E0066640C0818133300386C6C39CD
:1000D0006E6E3B0018180000000000000C1C181881
:1000E000181C0C00181C0C0C0C1C1800082A1C14E2
:1000F000220000000008083E080800000000000080
:10010000001818300000003E000000000000000051
:10011000001818000C0C1C183830300018246E76AB
:10012000662418001838181818183C003C66060C8D
:1001300018307E003C66061C06663C000E1E3666C5
:100140007F0606007E60607C06663C003C60607C4A
:1001500066663C007E060E0C0C1818003C66663C79
:1001600066663C003C66663E0606060000001818FF
:1001700000181800000018180018183000061C306D
:100180001C06000000003E003E00000000301C067F
:100190001C3000003C660C18001818001C224D553D
:1001A0004E201E001C3E36367F6363007C66667CF4
:1001B00066667C003C66606060663C007C666666E5
:1001C00066667C007E60607C60607E007E60607C35
:1001D000606060003C6660606E663C006666667EDD
:1001E000666666003C18181818183C001E0C0C0CAB
:1001F0000C6C3800666C7870786C660060606060CB
:1002000060607E0063777F6B6363630066767E7EEB
:100210006E6666003C66666666663C007C66667C6A
:10022000606060003C666666666E3C067C66667C66
:10023000786C66003C66703C0E663C007E181818B0
:10024000181818006666666666663C006363363694
:100250001C1C08006363636B6B36360066663C18D3
:100260003C6666006666663C181818007E060C1828
:1002700030607E003C30303030303C003030381858
:100280001C0C0C003C0C0C0C0C0C3C000814220048
:10029000000000000000000000003E000C0602000C
:1002A0000000000000001E3636361F0030303C369D
:1002B00036363C0000001C3630361C0006061E3662
:1002C00036361F0000001C363C301C000E18181873
:1002D0003C18180000001E36361E061C30303C3616
:1002E000363636000018001818181800000C000CDC
:1002F0000C0C2C183030363C3C36360018181818C8
:1003000018180C000000766B6B6B630000003C3625
:100310003636360000001C3636361C0000003C36EF
:1003200036363C3000001E3636361E0600003C32A3
:100330003030300000001E301C063C0000183C1815
:1003400018180C000000363636361C000000363611
:10035000361C08000000636B6B3E14000000361C66
:10036000081C360000003636361E061C00003E0C07
:1003700018303E000C08183018080C00080808084F
:100380000808080018080C060C081800000030497E
:10039000060000000000000000000000001818180F
:1003A00008001800363600000000000000367F36D6
:1003B000367F36001C36307C30307E0066640C0898
:1003C00018133300386C6C396E6E3B00181800003F
:1003D000000000000C1C1818181C0C00181C0C0C39
:1003E0000C1C1800082A1C14220000000008083EFB
:1003F0000808000000000000001818300000003E4F
:100400000000000000000000001818000C0C1C1870
:1004100038303000003C66766E663C0000183818B4
:1004200018183C00003C660E3C707E00003C661CC8
:1004300006663C00001C2C4C4C7E0C00007C607C52
:1004400006663C00003C607C66663C00007E060C54
:1004500018181800003C663C66663C00003C666666
:100460003E063C000000181800181800000018187C
:100470000018183000061C301C06000000003E006A
:100480003E00000000301C061C300000007CCECE78
:10049000180018001C224D554E201E0000387CE626
:1004A000FEE6E60000FCE6FCE6E6FC00007CE6E09A
:1004B000E0E67C0000FCE6E6E6E6FC0000FEE0FC90
:1004C000E0E0FE0000FEE0FCE0E0E000007CE6E0B2
:1004D000EEE67C0000E6E6FEE6E6E600007C383864
:1004E00038387C0000FE1C1CDCDC780000E6ECF8F0
:1004F000F8ECE60000E0E0E0E0E6FE0000C6EEFE1C
:10050000D6C6C60000E6F6FEEEE6E600007CE6E6AD
:10051000E6E67C0000FCE6E6FCE0E000007CE6E6C7
:10052000EEEE7C0E00FCE6E6FCECE600007CE27CF5
:100530000EEE7C0000FE38383838380000E6E6E67B
:10054000E6E67C0000E6E6E6E67C380000C6C6D6B5
:10055000D6EEC60000EEF4783C5EEE0000C6EE7CFF
:100560003838380000FE1C3870E0FE003C30303077
:1005700030303C00303038181C0C0C003C0C0C0C9B
:100580000C0C3C00081422000000000000000000D9
:1005900000003E000C0602000000000000007CECA1
:1005A000ECEC760000E0E0FCEEEEFC0000007CEEFF
:1005B000E0EE7C00000E0E7EEEEE7E0000007CEE93
:1005C000FEE07E00003C7670FE707000007CEEEE77
:1005D0007E0EEE7C00E0E0FCEEEEEE00003800382F
:1005E00038383800001C001C1CDCDC7800E0E0E639
:1005F000F8ECE60000783838383838000000FCD6CF
:10060000D6D6D6000000FCE6E6E6E60000007CE672
:10061000E6E67C000000FCEEEEFCE0E000007EEE92
:10062000EE7E0E0E0000EEF8F0E0E00000007EE04E
:10063000FE0EFC00007070FE70763C000000EEEED6
:10064000EEEE7E000000C6C6EE7C38000000C6D686
:10065000D6EEC6000000EE74385CEE000000C66EF8
:100660003C3870E00000FE1C3870FE000C081830AA
:1006700018080C00080808080808080018080C06E4
:100680000C081800000030490600000011241FBEAD
:10069000CFEFD0E1DEBFCDBF13E0A0E0B1E0E6EFE9
:1006A000FFE102C005900D92AE37B107D9F713E014
:1006B000AEE7B3E001C01D92AF37B107E1F70E948A
:1006C000960D0C94F90F0C94000090E0887F9070C8
:1006D000880F991F82959295907F9827807F982701
:1006E00070E06C7F7070682B792B660F771F660F38
:1006F000771F660F771F46954695469550E0642B09
:10070000752BCB010895149888B91398139A149AED
:10071000089588B91398139A089598B91398139A5D
:1007200088B91398139A0895159886B1159A089563
:10073000159896B1159A159886B1159A392F20E01B
:10074000280F311DC9010895181614F4119A08953F
:10075000882329F082B192E0892782B908951198FF
:100760000895CF93DF93EC01A62FAC01372F3323ED
:1007700009F48DC0FA0120E1808188B91398139A99
:10078000818188B91398139A828188B91398139A32
:10079000838188B91398139A848188B91398139A1E
:1007A000858188B91398139A868188B91398139A0A
:1007B000878188B91398139A808588B91398139AFA
:1007C000818588B91398139A828588B91398139AEA
:1007D000838588B91398139A848588B91398139AD6
:1007E000858588B91398139A868588B91398139AC2
:1007F000878588B91398139A808988B91398139AB2
:10080000818988B91398139A828988B91398139AA1
:10081000838988B91398139A848988B91398139A8D
:10082000858988B91398139A868988B91398139A79
:10083000878988B91398139A808D88B91398139A69
:10084000818D88B91398139A828D88B91398139A59
:10085000838D88B91398139A848D88B91398139A45
:10086000858D88B91398139A868D88B91398139A31
:10087000878D88B91398139A2150B096222309F0D6
:100880007BCF315040505E4F332309F073CF972F09
:10089000990F80E0662349F0FE01E80FF91F81916E
:1008A00088B91398139AA150D1F7DF91CF91089589
:1008B0001F93B42F152FAB01149888B91398139A6E
:1008C000149AAB2F912F992309F48DC0FB0120E1DD
:1008D000818188B91398139A808188B91398139AE3
:1008E000838188B91398139A828188B91398139ACF
:1008F000858188B91398139A848188B91398139ABB
:10090000878188B91398139A868188B91398139AA6
:10091000818588B91398139A808588B91398139A9A
:10092000838588B91398139A828588B91398139A86
:10093000858588B91398139A848588B91398139A72
:10094000878588B91398139A868588B91398139A5E
:10095000818988B91398139A808988B91398139A52
:10096000838988B91398139A828988B91398139A3E
:10097000858988B91398139A848988B91398139A2A
:10098000878988B91398139A868988B91398139A16
:10099000818D88B91398139A808D88B91398139A0A
:1009A000838D88B91398139A828D88B91398139AF6
:1009B000858D88B91398139A848D88B91398139AE2
:1009C000878D88B91398139A868D88B91398139ACE
:1009D0002150B096222309F07BCF915060507E4F7A
:1009E000992309F073CF712F770F60E0BB2371F06B
:1009F000FA01E60FF71F818188B91398139A808155
:100A000088B91398139A3296A150A9F71F910895A7
:100A1000942F149888B91398139A149A68B9552387
:100A200029F180E11398139A1398139A1398139A43
:100A30001398139A1398139A1398139A1398139A56
:100A40001398139A1398139A1398139A1398139A46
:100A50001398139A1398139A1398139A1398139A36
:100A60001398139A8150F1F65150D9F6442321F08E
:100A70001398139A9150E1F70895942F149888B918
:100A80001398139A149A552309F467C080E178B932
:100A90001398139A68B91398139A78B91398139AFC
:100AA00068B91398139A78B91398139A68B9139878
:100AB000139A78B91398139A68B91398139A78B956
:100AC0001398139A68B91398139A78B91398139ACC
:100AD00068B91398139A78B91398139A68B9139848
:100AE000139A78B91398139A68B91398139A78B926
:100AF0001398139A68B91398139A78B91398139A9C
:100B000068B91398139A78B91398139A68B9139817
:100B1000139A78B91398139A68B91398139A78B9F5
:100B20001398139A68B91398139A78B91398139A6B
:100B300068B91398139A78B91398139A68B91398E7
:100B4000139A78B91398139A68B91398139A815025
:100B500009F09DCF515009F099CF442341F078B965
:100B60001398139A68B91398139A9150C1F708957E
:100B7000149888B91398139A149ACB01642F70E0D3
:100B80000E94B1030895149888B91398139A149A7F
:100B900018B817B81598159A442349F0FB01159811
:100BA00086B1159A81938E2F861B8417C0F38FEF21
:100BB00087B908951498EAE2E8B91398139A149A39
:100BC00078B91398139A68B91398139A38B9139887
:100BD000139A28B91398139A14982BE228B91398EA
:100BE000139A149A98B91398139A88B91398139A68
:100BF00058B91398139A48B91398139A0895AF9255
:100C0000BF92CF92DF92EF92FF920F931F93CF93F9
:100C1000DF935801DC01FA0126173707B0F56901A7
:100C20008B01EA17FB07B0F57F01ED01B601C701A3
:100C30009801AE010E94DA052196CE19DF09BE01A6
:100C400080E090E00F5F1F4F0C191D09980140E0F4
:100C500050E00E94820F9B01AC01203080E03807F9
:100C600081E0480780E05807C0F48CE2B501A90193
:100C70000E943D05DF91CF911F910F91FF90EF9062
:100C8000DF90CF90BF90AF9008956B018901EA1774
:100C9000FB0750F27D01EF01C9CFA9014F5F5F4F04
:100CA0008CE2B5010E943D058CE3B5014FEF5FEF8B
:100CB0000E943D05DFCFCF93DF93EC0180917E034F
:100CC00080FD19C060E070E080E090E02FEE30E041
:100CD0004FE351E00E94DA058CE2BE0140E050E8AB
:100CE0000E943D058CE3BE0140E05CEA0E943D05A8
:100CF000DF91CF91089560E070E080E090E02FE315
:100D000031E04FEE50E00E94DA05E6CFCF92DF925D
:100D1000EF92FF920F931F938C01CB01BA01FB015D
:100D2000D801CD90DC9011971296ED90FC9013971E
:100D3000EC0DFD1D9F0121503040F701E80FF91F18
:100D4000AF01415050400E94DA050C5F1F4FEC9CF0
:100D5000A001ED9C500DFC9C500D11248CE2B801BB
:100D60000E9458041F910F91FF90EF90DF90CF9059
:100D70000895982F149886E388B91398139A149AB3
:100D80009130A1F0913038F488E488B91398139A1F
:100D900090937E030895923081F09330C9F788EEE6
:100DA00088B91398139A90937E03089588E288B9BE
:100DB0001398139A90937E03089588E888B913983E
:100DC000139A90937E03089580E00E94B90660E034
:100DD00070E080E090E02FE030E04FE750E00E94CC
:100DE000DA058CE260E070E040E058E00E945804D0
:100DF00060E270E080E090E020EA30E04FEF50E009
:100E00000E94DA0514988CE288B91398139A149A00
:100E100020E030E0F901EE0FFF1F85919591A5913B
:100E2000B49198B91398139A88B91398139A2F5FAD
:100E30003F4F37FFEFCF0895EF92FF920F931F932D
:100E40008B019C017A01A90198010E94DA0514988E
:100E50008CE288B91398139A149AF8B81398139AD5
:100E6000E8B81398139A1F910F91FF90EF9008958F
:100E70004F925F926F927F928F929F92AF92BF92AA
:100E8000CF92DF92EF92FF920F931F93CF93DF9356
:100E900069017A0158019B01AC018601E7014B0110
:100EA0008C0C9D1C7C01EC0EFD1EB401C7012901B8
:100EB000401A510A3A016C1A7D0AA5010E941C07CA
:100EC000CD28E9F42097A9F4012B11F0CD2BE9F4FA
:100ED000DF91CF911F910F91FF90EF90DF90CF9016
:100EE000BF90AF909F908F907F906F905F904F904A
:100EF0000895B401C301A5010E941C07E5CFB2010A
:100F0000C701A5010E941C07DDCFB201C301A501E5
:100F10000E941C07DDCF4F925F926F927F928F925B
:100F20009F92AF92BF92CF92DF92EF92FF920F9378
:100F30001F93CF93DF932B013C0149015A010E947B
:100F40003807A814B90431F09501A401C301B20116
:100F50000E943807DF91CF911F910F91FF90EF9082
:100F6000DF90CF90BF90AF909F908F907F906F90C9
:100F70005F904F9008952F923F924F925F926F92A1
:100F80007F928F929F92AF92BF92CF92DF92EF9219
:100F9000FF920F931F93CF93DF932B013C01190115
:100FA0004423C9F1842F90E0CC27DD27C81BD90B3F
:100FB0004C01AA24BB2401C05C0175016401C3017A
:100FC000B201A701960181010E948B07C50101961C
:100FD000C80FD91FCA0DDB1DD7FD07C0C819D90915
:100FE000089481089108C819D9098816990620F72C
:100FF000DF91CF911F910F91FF90EF90DF90CF90F5
:10100000BF90AF909F908F907F906F905F904F9028
:101010003F902F900895A9010E941C07E9CFDF930C
:10102000CF93CDB7DEB76E970FB6F894DEBF0FBE85
:10103000CDBF85B7806885BF85B7806885BF8FE7DE
:1010400081B98FEF87B988E382B980E89BEB01977C
:10105000F1F7129A20E035E04CE251E0CA01019725
:10106000F1F721503040D1F7149888E288B91398ED
:10107000139A149A149881E188B91398139A149AC0
:1010800014988BEC88B91398139A149A91E098B934
:101090001398139A149880EC88B91398139A149A99
:1010A00026E228B91398139A88E088B91398139AFE
:1010B000149881EC88B91398139A149A80E188B92E
:1010C0001398139A149885EC88B91398139A149A64
:1010D00085E388B91398139A8EE388B91398139A05
:1010E000149886E388B91398139A149A88E488B9F7
:1010F0001398139A149880EB88B91398139A149A3A
:101100008AE488B91398139A149881EB88B91398D4
:10111000139A149A18B81398139A8BE188B91398F4
:10112000139A149886EB88B91398139A149A8AE044
:1011300088B91398139A82E888B91398139A87E2AA
:1011400088B91398139A18B81398139A149887ECBF
:1011500088B91398139A149A85EB88B91398139A3F
:10116000149886EF88B91398139A149A98B913981B
:10117000139A18B81398139A18B81398139A1498C6
:1011800082EF88B91398139A149A18B81398139A7F
:10119000149828B91398139A149A98B91398139A13
:1011A00014988AE388B91398139A149A85E588B934
:1011B0001398139ABE016F5F7F4FDB01EFE6F3E0F8
:1011C0008FE001900D928150E1F780EE4FE00E9498
:1011D000B805BE01605F7F4FDB01E0E6F3E08FE022
:1011E00001900D928150E1F781EE4FE00E94B80529
:1011F000149884E388B91398139A149A149884EB7A
:1012000088B91398139A149A18B81398139A1498C3
:1012100087EB88B91398139A149A87E088B91398C2
:10122000139A80E090E00E945B06149889E288B9E6
:101230001398139A149A2CE231E04CE251E0CA015F
:101240000197F1F721503040D1F781E00E94A403CB
:101250006E960FB6F894DEBF0FBECDBFCF91DF9173
:1012600008958F929F92AF92BF92CF92DF92EF92AA
:10127000FF920F931F93CF93DF935C01CB01BA01D1
:10128000FC2C48016901F01AE21A0F2D10E09801B8
:10129000260F371FCE2DD0E0AE01480F591F0E94F8
:1012A000DA05F8013196D5014D915C91842F90E0DB
:1012B000E817F907E4F514988CE288B91398139AA3
:1012C000149AE39409F44BC0B5016C5F7F4F4C9DB9
:1012D000C0014D9D900D5C9D900D1124880D991DB0
:1012E000880F991F680F791F980120953095240F5A
:1012F000351F220F331FAF01440F551FBFEFFB16E1
:1013000089F0FB01DB01A40FB51F818188B9139817
:10131000139A808188B91398139A3296EA17FB07BB
:10132000A1F7BF01EA94D9F0620F731FE7CFEC9DDC
:10133000B001ED9D700DFC9D700D11246E5F7F4F0F
:10134000660F771F6A0D7B1D2196CE9FA001CF9F50
:10135000500DDE9F500D11248CE20E945804DF9145
:10136000CF911F910F91FF90EF90DF90CF90BF90A2
:10137000AF909F908F9008952F923F924F925F92DF
:101380006F927F929F92AF92BF92CF92DF92EF9235
:10139000FF920F931F93CF93DF93EC012A013B0140
:1013A000922ED501F6011701580181E0981609F433
:1013B0007BC00A2F0E191C2D1A198881C82ECC0C3F
:1013C000202F30E02F5F3F4F7901EE0CFF1C492D9D
:1013D00050E0D3011197812F90E00196849FF00196
:1013E000859FF00D949FF00D1124B2016150704063
:1013F000429FC001439F900D529F900D11249B016D
:10140000280F391FAD014E0F5F1FC301B2010E94AB
:10141000DA052881398114988CE288B91398139AD7
:10142000149A1F3F09F447C0AE014C5F5F4F2A9DDD
:10143000C0012B9D900D3A9D900D1124820D931D9E
:10144000880F991F480F591FB92DB1508E2D90E06C
:101450009701CC27DD27C81BD90BEC2CFF24992042
:10146000E9F0AB2F0F3FA1F0FA01BA01620F731F31
:1014700051814081992D58B91398139A48B91398FE
:10148000139A9150C1F73296E617F70789F7AF0123
:101490004C0F5D1FAA2311F0A150E4CF112359F086
:1014A0004E0D5F1D1150DBCFCE01980187016D01FC
:1014B0007F010E943109DF91CF911F910F91FF9021
:1014C000EF90DF90CF90BF90AF909F907F906F9004
:1014D0005F904F903F902F9008956F927F928F92E0
:1014E0009F92AF92BF92CF92DF92EF92FF920F93B3
:1014F0001F93CF93DF933C016A017B01213009F4F4
:101500007DC0222379F4DF91CF911F910F91FF903D
:10151000EF90DF90CF90BF90AF909F908F907F9093
:101520006F900895FC0180819181082F000F64E085
:10153000862E912C860C971CA280B380C22FD0E0FF
:10154000D7011197CA9DF001CB9DF00DDA9DF00DEA
:101550001124B601615070409C01C29FC001C39F1D
:10156000900DD29F900D11249B01280F391FAD01C2
:101570004E0F5F1FC701B6010E94DA0514988CE276
:1015800088B91398139A149A10E0EE24FF24E01AF5
:10159000F10A03C00894A108B108A114B10409F428
:1015A000B2CFBE0161157105A9F3F301A081B1812C
:1015B000109739F1F401AD01209759F03181208164
:1015C000CE0138B91398139A28B91398139A019732
:1015D000C1F732964150504079F7AA0FBB1F8A0ECF
:1015E0009B1E382D292D6150704029F4832F922F96
:1015F0009C014901CFCF8E0C9F1CD4CF0E94860640
:1016000082CF382D292DEFCF6F927F928F929F92AC
:10161000AF92BF92CF92DF92EF92FF920F931F9300
:10162000A82E3A014B01B22ED32EBA01F4018052FA
:101630008F3568F01F910F91FF90EF90DF90CF9062
:10164000BF90AF909F908F907F906F9008958C2D5A
:1016500090E0880F991F880F991F880F991F61507C
:1016600070409B01280F391F3197AF01480F591F58
:10167000C401B3010E94DA056A2D70E06052704027
:10168000660F771F660F771F660F771F6E0D7F1D22
:1016900014988CE288B91398139A149AA0E0B0E0D9
:1016A000FB01EA0FFB1F4491CC2019F150E030E818
:1016B00020E0932F942380E009C0D8B81398139AA0
:1016C000B8B81398139A8F5F8C1558F49923A9F71B
:1016D00018B91398139A08B91398139A8F5F8C1539
:1016E000A8F32F5F283011F03695E3CF5F5F5C15CC
:1016F000F0F21196A830B10599F69CCF2F923F9247
:101700004F925F926F927F928F929F92AF92BF9211
:10171000CF92DF92EF92FF920F931F93DF93CF93BD
:10172000CDB7DEB727970FB6F894DEBF0FBECDBF9B
:101730003C01552E3A8329831C830B8317014C2CC3
:10174000842F4D838C2C9924880C991C880C991C0F
:10175000880C991C952F9F838E83262F372FC901C4
:101760005C01DD24D3949D2D9150F301E90FF11D0F
:101770008081882391F08A3051F5A80CB91C8D81A5
:10178000952D9C013F832E83D3949D2D9150F30181
:10179000E90FF11D8081882371F7892F27960FB6F5
:1017A000F894DEBF0FBECDBFCF91DF911F910F9197
:1017B000FF90EF90DF90CF90BF90AF909F908F9071
:1017C0007F906F905F904F903F902F9008954E8143
:1017D0005F81B50129813A810B811C817101C42C83
:1017E0000E94040B8E819F81880D991D9F838E839B
:1017F000D394CBCF4F925F926F927F928F929F92B2
:10180000AF92BF92CF92EF92FF920F931F93DF930D
:10181000CF93CDB7DEB72B970FB6F894DEBF0FBED0
:10182000CDBF3A014B0129015E010894A11CB11CF6
:10183000B5014AE050E00E94C80FC501B401A30100
:1018400092010E947E0B2B960FB6F894DEBF0FBE5E
:10185000CDBFCF91DF911F910F91FF90EF90CF906F
:10186000BF90AF909F908F907F906F905F904F90C0
:1018700008952F923F924F925F926F927F928F9234
:101880009F92AF92BF92CF92DF92EF92FF920F930F
:101890001F93DF93CF93CDB7DEB727970FB6F8949A
:1018A000DEBF0FBECDBF4C01D52E3A832983180170
:1018B0002701CB82842F4C836C2C7724660C771CF9
:1018C000660C771C660C771C952F9F838E83262FC2
:1018D000372FC9015C01F4010894811C911C94917B
:1018E0009A3041F4A60CB71C8C819D2D9C013F833E
:1018F0002E83F1CF892F4E815F81B50129813A81F5
:1019000081017201CB809D830E94040B9D819923EC
:1019100039F08E819F81860D971D9F838E83DBCF4B
:1019200080E027960FB6F894DEBF0FBECDBFCF91F3
:10193000DF911F910F91FF90EF90DF90CF90BF90BC
:10194000AF909F908F907F906F905F904F903F905F
:101950002F9008953F924F925F926F927F928F9255
:101960009F92AF92BF92CF92DF92EF92FF920F932E
:101970001F93CF93DF934901380127013C2C5A0173
:10198000EB01982F9F7082958F709A3048F127E372
:10199000D22ED90E8A3048F5805DA501BE01940192
:1019A00083017201C32C0E94040BA501485F5F4FA5
:1019B000BE018D2D94010E94040B82E0DF91CF9136
:1019C0001F910F91FF90EF90DF90CF90BF90AF905D
:1019D0009F908F907F906F905F904F903F90089571
:1019E00000E3D02ED90E8A30B8F2895CD6CF2F9280
:1019F0003F924F925F926F927F928F929F92AF929F
:101A0000BF92CF92DF92EF92FF920F931F93DF93DB
:101A1000CF93CDB7DEB762970FB6F894DEBF0FBE97
:101A2000CDBF3C01D42EB52E698B7A8B19011D8751
:101A30000C87FF86EE86C88A8A2CAA2009F46FC01C
:101A40004D2C5B2CC301BE016F5F7F4F4AE050E01D
:101A50000E94C80F8981882309F466C09924939451
:101A6000E1E0F0E0EC0FFD1FE90DF11D808188231E
:101A7000B1F7981408F056C04889642E7724660C94
:101A8000771C660C771C660C771CD92C520180E2FF
:101A9000A50169897A8991010C851D85EE84FF84F1
:101AA000C8880E94040BD394A60CB71CD81478F3F2
:101AB0009301240D351D9094980C892D90E0AC0174
:101AC000469DC001479D900D569D900D1124280FF5
:101AD000391FCE010196A90169897A8991010C8586
:101AE0001D85EE84FF84C8880E947E0B62960FB627
:101AF000F894DEBF0FBECDBFCF91DF911F910F9144
:101B0000FF90EF90DF90CF90BF90AF909F908F901D
:101B10007F906F905F904F903F902F9008950E941C
:101B2000FA0B8ECF9201D5CF9924A3CF2F923F925B
:101B30004F925F926F927F928F929F92AF92BF92DD
:101B4000CF92DF92EF92FF920F931F93DF93CF9389
:101B5000CDB7DEB72E970FB6F894DEBF0FBECDBF60
:101B6000279A80E00E940F082F9A81E00E94B90610
:101B70008CE790E040E050E060E070E020E038EF7B
:101B800000E010E0BCE9EB2EB0E0FB2ECC24C394C7
:101B90000E94390C80E091E040E050E068E070E0A5
:101BA00020E030E000EE1AEF0E947E0B60E070E073
:101BB00088E190E02FE730E047E950E006EC11E3E0
:101BC0000E94FF0566247724D62CDD0CF8E14F2E09
:101BD000512C430152018D2DB501A40120EE3AEFA5
:101BE00000E010E0ACE9EA2EA0E0FA2ECC24C39489
:101BF0000E94040B88E090E0480E591ED39498E9A7
:101C00004916510431F7A8E0B0E06A0E7B1EB0E43B
:101C10006B167104C9F689E091E040E450E068E099
:101C200070E020E030E00FE114E8E4E9EE2EE3E0BC
:101C3000FE2ECC24C3940E947E0B5524B0E46B2E60
:101C4000712CD52CF8E12F2E312C430151018D2D13
:101C5000B501A4012FE134E800E010E0A4E9EA2E88
:101C6000A3E0FA2ECC24C3940E94040BE8E0F0E039
:101C70002E0E3F1ED394F8E92F16310431F780E180
:101C8000580EA8E0B0E06A0E7B1EB0E85B16C9F6FD
:101C900080E591E040E050E068E970E021E00E94DA
:101CA0006D0A80E591E040E050E068EA70E021E0F4
:101CB0000E946D0A80E591E040E050E068EB70E042
:101CC00021E0EE24FF248701E7E0AE2EB12CE7E00F
:101CD000CE2ED12C0E94BC0980E591E040E150E07D
:101CE00068EB70E021E038E0E32EF12C012D112D9E
:101CF000BFE0AB2EB12CB7E0CB2ED12C0E94BC099B
:101D000080E591E040E050E068EC70E021E0E12CFB
:101D1000F12CA8E00A2F112DF7E0AF2EB12CFFE037
:101D2000CF2ED12C0E94BC0980E591E040E150E02B
:101D300068EC70E021E0E8E0EE2EF12CE8E00E2FF8
:101D4000112D3FE0A32EB12C3FE0C32ED12C0E94D9
:101D5000BC0902E0F02E10E1E12EAA24BB2480E2AF
:101D600090E06F2D70E00E94A10F062F662379F09E
:101D7000DF2CD69418E94E2D612F84E593E050E0D6
:101D800070E02D2D0E946D0A1F0D0150A1F78F2DBF
:101D9000880F0894A11CB11CE5E0AE16B10419F03F
:101DA000EF0CF82EDCCF80E591E040E550E068E9EB
:101DB00070E022E00E946D0A80E890E09C838B83B3
:101DC0001A821982E981FA813396F887EF8388E5D0
:101DD00090E09E838D831E861D86AB81BC81BA8771
:101DE000A987ED81FE81FC87EB8729803A804D84AD
:101DF0005E846F807884B3E08B2E912C840C951CCC
:101E000080E591E049855A856B857C8524E08201D7
:101E10007101640153010E94BC09AD81BE815296DB
:101E2000BE83AD83ED85FE853496FE87ED87A03AAF
:101E3000B10599F68B819C8142969C838B83A98105
:101E4000BA811496BA83A983883C910509F0BACF68
:101E500082E191E040E850E068E070E02FEF3FEF72
:101E600000E010E0ACE9EA2EA0E0FA2EF2E0CF2E7E
:101E70000E947E0B8EE191E040E850E068E170E066
:101E800020E038EFE4E0CE2E0E947E0B8CE790E05D
:101E900040E050E060E070E020EE37E0CC24C394F6
:101EA0000E94390C88E291E040E050E067EE70E07B
:101EB0002FE138EF0E947E0B87E391E048E750E086
:101EC00067EE70E02FE138EF0E947E0B2F98DD2443
:101ED00010E8612E712CB2EB8B2E912C8D2D90E0A1
:101EE000B401A3012FEF37E000E010E0ACE9EA2EE7
:101EF000A0E0FA2EF4E0CF2EE3E0AE2E0E94F70C25
:101F0000D394E6CF629FD001739FF001829FE00DD2
:101F1000F11D649FE00DF11D929FF00D839FF00D68
:101F2000749FF00D659FF00D9927729FB00DE11D14
:101F3000F91F639FB00DE11DF91FBD01CF011124F1
:101F4000089597FB092E07260AD077FD04D00CD000
:101F500006D000201AF4709561957F4F0895F6F72A
:101F6000909581959F4F0895AA1BBB1B51E107C017
:101F7000AA1FBB1FA617B70710F0A61BB70B881F19
:101F8000991F5A95A9F780959095BC01CD010895A8
:101F9000FB019F01E8944230C4F04532B4F44A306A
:101FA00029F497FB1EF4909581959F4F642F772716
:101FB0000E94B40F805D8A330CF0895D8193CB0160
:101FC0000097A1F716F45DE251931082C9010C94B9
:101FD000E90FDC01FC01672F71917723E1F732975C
:101FE00004C07C916D9370836291AE17BF07C8F3F4
:061FF0000895F894FFCFF4
:101FF60020204D61736820200020204F727978429E
:10200600200048656C6C6F20776F726C64004761C6
:102016006D650A4F766572004C617374204D6F646E
:1020260069666965643A0053756E204E6F76203096
:10203600362031313A32343A3333203230313600B9
:1020460010001000E0070000000000000000000083
:10205600000000000000000000000000000000007A
:102066000000E00700000000000000000000000083
:1020760000F800F800F800F800000000000000007A
:1020860000000000000000000000000000F800F85A
:1020960000F800F800F800F800F800F8000000006A
:1020A6000000000000000000000000F800F800F842
:1020B60000F800F800F800F800F800F800F8000052
:1020C600000000000000000000F800F800F800F82A
:1020D60000F800F800F800F800F800F800F800F83A
:1020E600000000000000000000F800F8FFFFFFFFFE
:1020F60000F800F800F800F8FFFFFFFF00F800F80E
:10210600000000000000000000F8FFFFFFFFFFFFD7
:10211600FFFF00F800F8FFFFFFFFFFFFFFFF00F8DB
:1021260000000000000000F800F8FFFFFFFFFFFFBF
:10213600FFFF00F800F8FFFFFFFFFFFFFFFF00F8BB
:1021460000F80000000000F800F8FFFF1F001F0065
:10215600FFFF00F800F8FFFF1F001F00FFFF00F859
:1021660000F80000000000F800F800F81F001F004B
:1021760000F800F800F800F81F001F0000F800F84B
:1021860000F80000000000F800F800F800F800F879
:1021960000F800F800F800F800F800F800F800F879
:1021A60000F80000000000F800F800F800F800F859
:1021B60000F800F800F800F800F800F800F800F859
:1021C60000F80000000000F800F800F800F800F839
:1021D60000F800F800F800F800F800F800F800F839
:1021E60000F80000000000F800F8000000F800F811
:1021F60000F80000000000F800F800F8000000F801
:1022060000F80000000000F800000000000000F8E0
:10221600000000000000000000F8000000000000C0
:1022260000F80000E00700000000000000000000C9
:102236000000000000000000000000000000000098
:102246000000E00702000200FFFF00000000FFFFA1
:102256000025270510093A784D05180D383A1F1F35
:0E2266001A180A0F064587320A0702070500FC
:00000001FF
