:100000000C9436030C9453030C9453030C94530335
:100010000C9453030C9453030C9453030C94530308
:100020000C9453030C9453030C9453030C945303F8
:100030000C9453030C9453030C9453030C945303E8
:100040000C9453030C9453030C9453030C945303D8
:100050000C9453030C9453030C9453030C945303C8
:100060000C9453030C9453030C9453030C945303B8
:100070000C9453030C9453030C945303000000009E
:1000800000000000183C3C1818001800363600002C
:100090000000000014143E143E1414001C36307C82
:1000A00030307E0066640C0818133300386C6C39ED
:1000B0006E6E3B0018180000000000000C1C1818A1
:1000C000181C0C00181C0C0C0C1C1800082A1C1402
:1000D000220000000008083E0808000000000000A0
:1000E000001818300000003E000000000000000072
:1000F000001818000C0C1C183830300018246E76CC
:10010000662418001838181818183C003C66060CAD
:1001100018307E003C66061C06663C000E1E3666E5
:100120007F0606007E60607C06663C003C60607C6A
:1001300066663C007E060E0C0C1818003C66663C99
:1001400066663C003C66663E06060600000018181F
:1001500000181800000018180018183000061C308D
:100160001C06000000003E003E00000000301C069F
:100170001C3000003C660C18001818001C224D555D
:100180004E201E001C3E36367F6363007C66667C14
:1001900066667C003C66606060663C007C66666605
:1001A00066667C007E60607C60607E007E60607C55
:1001B000606060003C6660606E663C006666667EFD
:1001C000666666003C18181818183C001E0C0C0CCB
:1001D0000C6C3800666C7870786C660060606060EB
:1001E00060607E0063777F6B6363630066767E7E0C
:1001F0006E6666003C66666666663C007C66667C8B
:10020000606060003C666666666E3C067C66667C86
:10021000786C66003C66703C0E663C007E181818D0
:10022000181818006666666666663C0063633636B4
:100230001C1C08006363636B6B36360066663C18F3
:100240003C6666006666663C181818007E060C1848
:1002500030607E003C30303030303C003030381878
:100260001C0C0C003C0C0C0C0C0C3C000814220068
:10027000000000000000000000003E000C0602002C
:100280000000000000001E3636361F0030303C36BD
:1002900036363C0000001C3630361C0006061E3682
:1002A00036361F0000001C363C301C000E18181893
:1002B0003C18180000001E36361E061C30303C3636
:1002C000363636000018001818181800000C000CFC
:1002D0000C0C2C183030363C3C36360018181818E8
:1002E00018180C000000766B6B6B630000003C3646
:1002F0003636360000001C3636361C0000003C3610
:1003000036363C3000001E3636361E0600003C32C3
:100310003030300000001E301C063C0000183C1835
:1003200018180C000000363636361C000000363631
:10033000361C08000000636B6B3E14000000361C86
:10034000081C360000003636361E061C00003E0C27
:1003500018303E000C08183018080C00080808086F
:100360000808080018080C060C081800000030499E
:10037000060000000000000000000000001818182F
:1003800008001800363600000000000000367F36F6
:10039000367F36001C36307C30307E0066640C08B8
:1003A00018133300386C6C396E6E3B00181800005F
:1003B000000000000C1C1818181C0C00181C0C0C59
:1003C0000C1C1800082A1C14220000000008083E1B
:1003D0000808000000000000001818300000003E6F
:1003E0000000000000000000001818000C0C1C1891
:1003F00038303000003C66766E663C0000183818D5
:1004000018183C00003C660E3C707E00003C661CE8
:1004100006663C00001C2C4C4C7E0C00007C607C72
:1004200006663C00003C607C66663C00007E060C74
:1004300018181800003C663C66663C00003C666686
:100440003E063C000000181800181800000018189C
:100450000018183000061C301C06000000003E008A
:100460003E00000000301C061C300000007CCECE98
:10047000180018001C224D554E201E0000387CE646
:10048000FEE6E60000FCE6FCE6E6FC00007CE6E0BA
:10049000E0E67C0000FCE6E6E6E6FC0000FEE0FCB0
:1004A000E0E0FE0000FEE0FCE0E0E000007CE6E0D2
:1004B000EEE67C0000E6E6FEE6E6E600007C383884
:1004C00038387C0000FE1C1CDCDC780000E6ECF810
:1004D000F8ECE60000E0E0E0E0E6FE0000C6EEFE3C
:1004E000D6C6C60000E6F6FEEEE6E600007CE6E6CE
:1004F000E6E67C0000FCE6E6FCE0E000007CE6E6E8
:10050000EEEE7C0E00FCE6E6FCECE600007CE27C15
:100510000EEE7C0000FE38383838380000E6E6E69B
:10052000E6E67C0000E6E6E6E67C380000C6C6D6D5
:10053000D6EEC60000EEF4783C5EEE0000C6EE7C1F
:100540003838380000FE1C3870E0FE003C30303097
:1005500030303C00303038181C0C0C003C0C0C0CBB
:100560000C0C3C00081422000000000000000000F9
:1005700000003E000C0602000000000000007CECC1
:10058000ECEC760000E0E0FCEEEEFC0000007CEE1F
:10059000E0EE7C00000E0E7EEEEE7E0000007CEEB3
:1005A000FEE07E00003C7670FE707000007CEEEE97
:1005B0007E0EEE7C00E0E0FCEEEEEE00003800384F
:1005C00038383800001C001C1CDCDC7800E0E0E659
:1005D000F8ECE60000783838383838000000FCD6EF
:1005E000D6D6D6000000FCE6E6E6E60000007CE693
:1005F000E6E67C000000FCEEEEFCE0E000007EEEB3
:10060000EE7E0E0E0000EEF8F0E0E00000007EE06E
:10061000FE0EFC00007070FE70763C000000EEEEF6
:10062000EEEE7E000000C6C6EE7C38000000C6D6A6
:10063000D6EEC6000000EE74385CEE000000C66E18
:100640003C3870E00000FE1C3870FE000C081830CA
:1006500018080C00080808080808080018080C0604
:100660000C081800000030490600000011241FBECD
:10067000CFEFD0E1DEBFCDBF13E0A0E0B1E0E4EA10
:10068000FEE102C005900D92A637B107D9F713E03D
:10069000A6E7B3E001C01D92A737B107E1F70E94BA
:1006A000F90B0C94500F0C94000090E0887F907030
:1006B00025E0880F991F2A95E1F770E06C7F707034
:1006C000682B792B83E0660F771F8A95E1F74695B3
:1006D0004695469550E0642B752BCB01089550E06C
:1006E000469F9001479F300D569F300D1124FA010F
:1006F000E89FA001E99F500DF89F500D1124B9010A
:10070000CA010895262F972F682F70E0822F089531
:10071000682F70E090E008959C01462F972FB90153
:10072000842F0895F901E60FF71F9A01280F391F4A
:10073000BF01C9010895FB01E21BF30B9C01241BBF
:10074000350BBF01C9010895269FF001279FF00DC9
:10075000369FF00D1124489F9001499F300D589FFE
:10076000300D1124BF01C9010895AF92BF92CF92FD
:10077000DF92EF92FF920F931F937B018C0159013F
:100780006A01CB01B9010E94F00E362F272FC80154
:10079000B6010E94F00ECB01632F722F1F910F91B3
:1007A000FF90EF90DF90CF90BF90AF900895149896
:1007B00088B91398139A149A089588B91398139ABC
:1007C000089598B91398139A88B91398139A0895AD
:1007D000159886B1159A0895159896B1159A159899
:1007E00086B1159A392F20E0280F311DC9010895CF
:1007F000181614F4119A0895882311F41198089585
:1008000082B192E0892782B908950F931F93CF9305
:10081000DF93EB018A010E94D7039E01412F87C01D
:10082000808188B91398139A818188B91398139A93
:10083000828188B91398139A838188B91398139A7F
:10084000848188B91398139A858188B91398139A6B
:10085000868188B91398139A878188B91398139A57
:10086000808588B91398139A818588B91398139A4B
:10087000828588B91398139A838588B91398139A37
:10088000848588B91398139A858588B91398139A23
:10089000868588B91398139A878588B91398139A0F
:1008A000808988B91398139A818988B91398139A03
:1008B000828988B91398139A838988B91398139AEF
:1008C000848988B91398139A858988B91398139ADB
:1008D000868988B91398139A878988B91398139AC7
:1008E000808D88B91398139A818D88B91398139ABB
:1008F000828D88B91398139A838D88B91398139AA7
:10090000848D88B91398139A858D88B91398139A92
:10091000868D88B91398139A878D88B91398139A7E
:10092000B096915009F07CCF415020503E4F442367
:1009300019F0F90191E1F5CF402F912F990F80E047
:10094000FE01E80FF91F05C0819188B91398139A29
:1009500041504423C9F7DF91CF911F910F91089522
:10096000EF92FF920F931F93CF93DF93162F072FD2
:100970007A01C62FD72F0E94D703212F302FC9010C
:100980009C014F2D87C0818188B91398139A80816B
:1009900088B91398139A838188B91398139A82811E
:1009A00088B91398139A858188B91398139A84810A
:1009B00088B91398139A878188B91398139A8681F6
:1009C00088B91398139A818588B91398139A8085EA
:1009D00088B91398139A838588B91398139A8285D6
:1009E00088B91398139A858588B91398139A8485C2
:1009F00088B91398139A878588B91398139A8685AE
:100A000088B91398139A818988B91398139A8089A1
:100A100088B91398139A838988B91398139A82898D
:100A200088B91398139A858988B91398139A848979
:100A300088B91398139A878988B91398139A868965
:100A400088B91398139A818D88B91398139A808D59
:100A500088B91398139A838D88B91398139A828D45
:100A600088B91398139A858D88B91398139A848D31
:100A700088B91398139A878D88B91398139A868D1D
:100A800088B91398139AB096915009F07CCF4150D1
:100A900020503E4F442319F0F90191E1F5CF4E2D3E
:100AA0009F2D990F80E0FE01E80FF91F0AC0818198
:100AB00088B91398139A808188B91398139A415072
:100AC00032964423A1F7DF91CF911F910F91FF90B0
:100AD000EF900895FF920F931F93062FF42E152F7A
:100AE0000E94D70308B923C01398139A1398139A36
:100AF0001398139A1398139A1398139A1398139A96
:100B00001398139A1398139A1398139A1398139A85
:100B10001398139A1398139A1398139A1398139A75
:100B20001398139A1398139A8150F1F611501123C8
:100B300011F081E1F9CF4F2D03C01398139A415062
:100B40004423D9F71F910F91FF900895EF92FF92E0
:100B50000F931F93F62E072FE42E152F0E94D70315
:100B600064C008B91398139AF8B81398139A08B97F
:100B70001398139AF8B81398139A08B91398139AFC
:100B8000F8B81398139A08B91398139AF8B81398E9
:100B9000139A08B91398139AF8B81398139A08B9C6
:100BA0001398139AF8B81398139A08B91398139ACC
:100BB000F8B81398139A08B91398139AF8B81398B9
:100BC000139A08B91398139AF8B81398139A08B996
:100BD0001398139AF8B81398139A08B91398139A9C
:100BE000F8B81398139A08B91398139AF8B8139889
:100BF000139A08B91398139AF8B81398139A08B966
:100C00001398139AF8B81398139A08B91398139A6B
:100C1000F8B81398139A08B91398139AF8B8139858
:100C2000139A815009F09DCF1150112311F081E1E9
:100C3000F8CF4E2D07C008B91398139AF8B8139837
:100C4000139A41504423B9F71F910F91FF90EF90F1
:100C50000895FF920F931F93162F072FF42E0E94D3
:100C6000D70318B817B81598159A212F302FC90136
:100C7000FC0190E005C0159886B1159A81939F5F9D
:100C80009F15C8F38FEF87B91F910F91FF900895BB
:100C9000AF92BF92CF92DF92EF92FF920F931F938A
:100CA0007B018C0159016A018AE20E94D703C701C6
:100CB0000E94E103C5010E94E1038BE20E94D70379
:100CC000C8010E94E103C6010E94E1031F910F9138
:100CD000FF90EF90DF90CF90BF90AF9008951F935B
:100CE000182F86E30E94D703113049F0113028F005
:100CF000123039F0133059F406C088E405C088E298
:100D000003C088E801C088EE88B91398139A10933D
:100D100076031F9108956F927F928F929F92AF9268
:100D2000BF92CF92DF92EF92FF920F931F93CF93D8
:100D3000DF93D82E4A015B013901BA01F5018052D7
:100D40008F3508F04DC08C2D90E043E0880F991F3F
:100D50004A95E1F7615070409B01280F391F319788
:100D6000AF01480F591FC501B4010E944806CD2D9F
:100D7000DD27C7FDD095A09733E0CC0FDD1F3A9556
:100D8000E1F7CE0DDF1D8CE20E94D70380E090E0FA
:100D9000FE01E80FF91F749150E019C0662329F095
:100DA00078B81398139A68B804C018B91398139AAE
:100DB00008B91398139A2F5F2C1580F33F5F3830D2
:100DC00029F0469520E0642F6723F6CF5F5F5C151E
:100DD00018F440E830E0F6CF019688309105C1F66E
:100DE000DF91CF911F910F91FF90EF90DF90CF9007
:100DF000BF90AF909F908F907F906F9008952F92AB
:100E00003F924F925F926F927F928F929F92AF929A
:100E1000BF92CF92DF92EF92FF920F931F93DF93D7
:100E2000CF93CDB7DEB727970FB6F894DEBF0FBECE
:100E3000CDBF9A838983752E3C832B8318012701AC
:100E40006C2C842F4D838C2C992453E0880C991C96
:100E50005A95E1F7972D9F838E83262F372FC9014F
:100E60005C01DD24D3941BC08A3041F4A80CB91C6A
:100E70008D81972D9C013F832E8310C04E815F8111
:100E8000B5012B813C8181017201C62C0E948B0629
:100E90008E819F81880D991D9F838E83D3949D2D74
:100EA0009150E981FA81E90FF11D80818823E1F6F3
:100EB000892F27960FB6F894DEBF0FBECDBFCF9116
:100EC000DF911F910F91FF90EF90DF90CF90BF9037
:100ED000AF909F908F907F906F905F904F903F90DA
:100EE0002F900895EF92FF920F931F938B019C0117
:100EF0007A01A90198010E9448068CE20E94D7035A
:100F0000C7010E94E1031F910F91FF90EF90089598
:100F1000AF92BF92CF92DF92EF92FF920F931F9307
:100F2000CF93DF935801DC01FA012617370718F435
:100F300069018B0102C06B018901EA17FB0718F4F4
:100F40007F01ED0102C07D01EF01B601C7019801EB
:100F5000AE010E9448062196CE19DF09BE0180E04D
:100F600090E00F5F1F4F0C191D09980140E050E001
:100F70000E94D10E9B01AC01203080E0380781E057
:100F8000480780E0580760F0A9014F5F5F4F8CE28F
:100F9000B5010E94A6058CE3B5014FEF5FEF03C0DA
:100FA0008CE2B501A9010E94A605DF91CF911F91A6
:100FB0000F91FF90EF90DF90CF90BF90AF9008958A
:100FC000CF93DF93EC018091760380FF09C060E04E
:100FD00070E080E090E02FE331E04FEE50E008C099
:100FE00060E070E080E090E02FEE30E04FE351E011
:100FF0000E9448068CE2BE0140E45CE90E94A6051E
:101000008CE3BE0140EC5FE80E94A605DF91CF9122
:101010000895CF92DF92EF92FF920F931F938C016E
:10102000CB01BA01FB01D801CD90DC90119712964B
:10103000ED90FC901397EC0DFD1D9F012150304069
:10104000F701E80FF91FAF01415050400E944806D8
:101050000C5F1F4FEC9CA001ED9C500DFC9C500DB3
:1010600011248CE2B8010E94B0041F910F91FF90EF
:10107000EF90DF90CF9008954F925F926F927F92A2
:101080008F929F92AF92BF92CF92DF92EF92FF9298
:101090000F931F93CF93DF934C016A017B01302F95
:1010A000213029F4013041F40E94090865C022234F
:1010B00019F4002309F460C0F40180819181082FA4
:1010C000000FE4012496A280B380422E5524632EA3
:1010D0007724D6011197489EF001499EF00D589E45
:1010E000F00D1124B701615070406A9CC0016B9CE7
:1010F000900D7A9C900D1124AB01480F591F9D0152
:101100002E0F3F1FC701B6010E9448068CE20E94C5
:10111000D70310E0EE24FF24E01AF10A28C0F401FE
:1011200040815181FE01BA0110C0818188B91398B4
:10113000139A808188B91398139A21503040211551
:10114000310599F73296615070406115710511F0C3
:101150009201F5CF440F551FC40FD51F119711F001
:10116000CE0DDF1D1097D9F60894A108B108A1147F
:10117000B10411F0D301F6CFDF91CF911F910F9100
:10118000FF90EF90DF90CF90BF90AF909F908F90A7
:101190007F906F905F904F9008958F929F92AF9243
:1011A000BF92CF92DF92EF92FF920F931F93CF9354
:1011B000DF935C01CB01BA01DE2C48018901C8181C
:1011C000D21AEC2CFF249701260F371FCD2DD0E02B
:1011D000AE01480F591F0E944806C7010196F5014C
:1011E0002081318182179307C8F0809FB001819FD1
:1011F000700D909F700D11246E5F7F4F660F771FEB
:101200006A0D7B1D2196C89FA001C99F500DD89FD4
:10121000500D11248CE20E94B00440C084E090E0A4
:10122000A80EB91E029FE001039FD00D129FD00DA2
:101230001124C80DD91DCC0FDD1FCA0DDB1DECEF2D
:10124000FFEFAE0EBF1E1D2D1E5F8CE20E94D70366
:101250004C2D4E5FC3946C2D70E0660F771F970185
:101260002095309519C0942FFE0109C0818188B95D
:101270001398139A808188B91398139A32969150D3
:10128000A9F7C60FD71FF50180819181820F931FA7
:10129000880F991FC80FD91F115029F7DF91CF91DF
:1012A0001F910F91FF90EF90DF90CF90BF90AF9084
:1012B0009F908F9008952F923F924F925F926F92DE
:1012C0007F928F929F92AF92BF92CF92DF92EF92D6
:1012D000FF920F931F93DF93CF93CDB7DEB73C01FF
:1012E000CB01BA01222E302E182D0A2DDB0156011A
:1012F00067011A190E19F3019080990C212F30E023
:101300002F5F3F4F822E880C1197422D50E0429F55
:10131000F001439FF00D529FF00D11249D012E0FFF
:101320003F1FDC011197E32CFF24E02FF0E0319602
:101330002F01E49CF001E59CF00DF49CF00D1124CC
:10134000AD014E0F5F1F0E944806F301808191811D
:10135000C89E2001C99E500CD89E500C11244A0CE6
:101360005B1C440C551C84E090E0680E791E460C12
:10137000571C0E5F8CE20E94D70382E0D82ED10E5C
:101380001F5F212F30E0220F331F281931092E9DB6
:10139000B0012F9D700D3E9D700D1124690D711DC2
:1013A0001AC0AD2DFA010CC0818188B91398139A27
:1013B000808188B91398139A91509923A9F732968E
:1013C000A15011F0922DF9CF420F531FB150BB2302
:1013D00041F7460E571E015019F0A201B32DF7CF69
:1013E000CF91DF911F910F91FF90EF90DF90CF9001
:1013F000BF90AF909F908F907F906F905F904F9035
:101400003F902F9008954F925F926F927F928F92AC
:101410009F92AF92BF92CF92DF92EF92FF920F9383
:101420001F93CF93DF9369017A0158019B01AC01AF
:101430008601E7014601860E971EE80EF91EC701D8
:10144000B4012901401A510A3A016C1A7D0AA5011A
:101450000E947207CD2829F0B201C701A5010E94A0
:101460007207209729F0B401C301A5010E947207F9
:10147000012B39F0CD2B29F0B201C301A5010E9447
:101480007207DF91CF911F910F91FF90EF90DF9046
:10149000CF90BF90AF909F908F907F906F905F9014
:1014A0004F9008954F925F926F927F928F929F928A
:1014B000AF92BF92CF92DF92EF92FF920F931F9362
:1014C000CF93DF932B013C0149015A010E94030A8B
:1014D0008A149B0431F0A4019501C301B2010E945A
:1014E000030ADF91CF911F910F91FF90EF90DF9052
:1014F000CF90BF90AF909F908F907F906F905F90B4
:101500004F9008952F923F924F925F926F927F92E9
:101510008F929F92AF92BF92CF92DF92EF92FF9203
:101520000F931F93CF93DF932B013C0119014423A9
:1015300021F4A9010E94720726C0842F90E0CC27D5
:10154000DD27C81BD90B4C01AA24BB2475016401FB
:10155000C301B201A701960181010E94520AC5018F
:101560000196C80FD91FCA0DDB1DD7FD07C0C819CA
:10157000D909089481089108C819D90988169906CB
:1015800010F05C01E3CFDF91CF911F910F91FF909D
:10159000EF90DF90CF90BF90AF909F908F907F9013
:1015A0006F905F904F903F902F9008951F93DF931F
:1015B000CF93CDB7DEB76E970FB6F894DEBF0FBEF0
:1015C000CDBF85B7806885BF85B7806885BF8FE749
:1015D00081B98FEF87B988E382B980E89BEB0197E7
:1015E000F1F7129A80E095E02CE231E0F9013197B1
:1015F000F1F70197D9F788E20E94D70381E10E94B1
:10160000D7038BEC0E94D70311E018B91398139AF3
:1016100080EC0E94D70386E288B91398139A88E079
:1016200088B91398139A81EC0E94D70380E188B996
:101630001398139A85EC0E94D70385E388B9139811
:10164000139A8EE388B91398139A86E30E94D703FE
:1016500088E488B91398139A80EB0E94D7038AE430
:1016600088B91398139A81EB0E94D70318B813987E
:10167000139A8BE188B91398139A86EB0E94D703CB
:101680008AE088B91398139A82E888B91398139A54
:1016900087E288B91398139A18B81398139A87ECAD
:1016A0000E94D70385EB88B91398139A86EF0E949E
:1016B000D70318B91398139A18B81398139A18B82F
:1016C0001398139A82EF0E94D70318B81398139AAD
:1016D00086E20E94D70318B91398139A8AE30E94EE
:1016E000D70385E588B91398139ADE011196E6E6CB
:1016F000F3E08FE001900D928150E1F780EEBE01A2
:101700006F5F7F4F4FE050E00E940504DE0150966E
:10171000E7E5F3E08FE001900D928150E1F781EE73
:10172000BE01605F7F4F4FE050E00E94050484E3FC
:101730000E94D70384EB0E94D70318B81398139A1A
:1017400087EB0E94D70387E088B91398139A80E04B
:1017500090E00E94E00789E20E94D7038CE291E0CA
:101760002CE231E0F9013197F1F70197D9F781E0E7
:101770000E94F8036E960FB6F894DEBF0FBECDBF81
:10178000CF91DF911F910895CF93DF9380E00E9466
:101790006F0660E070E080E090E02FE030E04FE71F
:1017A00050E00E9448068CE260E070E040E058E0C3
:1017B0000E94B00460E270E080E090E020EA30E057
:1017C0004FEF50E00E9448068CE20E94D703C0E031
:1017D000D0E00AC0FE01EE0FFF1F85919591A59103
:1017E000B4910E94E1032196D7FFF4CFDF91CF910E
:1017F00008952F923F924F925F926F927F928F92B5
:101800009F92AF92BF92CF92DF92EF92FF920F938F
:101810001F93DF93CF93CDB7DEB761970FB6F894E0
:10182000DEBF0FBECDBF279A80E00E94D60A81E0BE
:101830000E946F0680E091E040E050E060E070E0E0
:1018400020E038EF00E010E0ECE7EE2EE0E0FE2EC6
:10185000CC24C3940E94FF068FE191E040E050E069
:1018600068E070E020E030E000EE1AEF0E94FF0632
:1018700060E070E088E190E02FE730E047E950E079
:1018800006EC11E30E9488076624772425C05201E4
:1018900043018D2D820DB501A40120EE3AEF00E049
:1018A00010E09CE7E92E90E0F92ECC24C3940E942E
:1018B0008B060894211C311C28E030E0420E531E98
:1018C00030E12316310419F788E090E0680E791EA4
:1018D00090E46916710441F022243324B8E14B2EC0
:1018E000512CD62CDD0CD3CF88E291E040E450E0BF
:1018F00068E070E020E030E00FE114E8A4E7EA2EB1
:10190000A3E0FA2ECC24C3940E94FF0690E0F0E4FA
:101910004F2E512C26C053014201892F820DB50153
:10192000A4012FE134E800E010E0E4E7EE2EE3E06C
:10193000FE2ECC24C3949F870E948B060894211C02
:10194000311CA8E0B0E06A0E7B1E9F85B0E12B162B
:10195000310409F7905FE8E0F0E04E0E5F1E90382A
:1019600031F02224332418E1612E712CD4CF87E486
:1019700091E040E050E068E970E00E94090887E4E7
:1019800091E040E050E068EA70E00E94090887E4D6
:1019900091E040E050E068EB70E000E010E020E013
:1019A00030E0B7E0CB2ED12CB7E0EB2EF12C0E942B
:1019B000CD0887E491E040E150E068EB70E008E09A
:1019C00010E020E030E0AFE0CA2ED12CA7E0EA2EF4
:1019D000F12C0E94CD0887E491E040E050E068ECF3
:1019E00070E000E010E028E030E0F7E0CF2ED12CEE
:1019F000FFE0EF2EF12C0E94CD0887E491E040E15A
:101A000050E068EC70E008E010E028E030E0EFE043
:101A1000CE2ED12CEFE0EE2EF12C0E94CD0882E0EC
:101A2000F82E00E1D02EAA24BB2480E290E06F2D96
:101A300070E00E94040FE62ECF2CC69418E90CC06B
:101A4000612F4D2D8BE493E050E070E02C2D0C2D98
:101A50000E943C081F0DEA94EE2091F78F2D880F0D
:101A60000894A11CB11CF5E0AF16B10419F0DF0C0D
:101A7000F82EDBCF87E491E040E550E068E970E0C4
:101A800023E002E00E943C0820E830E03C832B8306
:101A90001A8219823FC08B819C819C878B873E86EE
:101AA0002D86A981BA81B887AF83E889F989FA8739
:101AB000E9874D805E8013E0612E712C6E0E7F1ED3
:101AC00087E491E04B855C856D857E8524E004E0AC
:101AD000CF80D884E984FA84530142010E945B09D3
:101AE00022E130E0220E331E888999890496998B71
:101AF000888B90EA2916310471F6AB81BC8152962D
:101B0000BC83AB83E981FA813496FA83E983A83CEC
:101B1000B10561F029813A812D5F3F4F3E832D83CE
:101B2000B8E52B2E312C198A188AB5CF81E391E0C4
:101B300040E850E068E070E02FEF3FEF00E010E099
:101B4000ACE7EA2EA0E0FA2EF2E0CF2E0E94FF06CC
:101B50008DE391E040E850E068E170E020E038EF8C
:101B6000E4E0CE2E0E94FF0682E491E040E850E0DF
:101B700068E370E020E038EF0E94FF0680E091E02B
:101B800040E050E060E070E020EE37E0CC24C39409
:101B90000E94FF062F9A61960FB6F894DEBF0FBE23
:101BA000CDBFCF91DF911F910F91FF90EF90DF900C
:101BB000CF90BF90AF909F908F907F906F905F90ED
:101BC0004F903F902F9008952F923F924F925F92A7
:101BD0006F927F928F929F92AF92BF92CF92DF923D
:101BE000EF92FF920F931F93DF93CF9300D00F924A
:101BF000CDB7DEB7D82E9B834A015B01390128019E
:101C000017012DB73EB73A8329839C0137FF03C0E4
:101C1000309521953F4FE4E0F0E007C03196C901CF
:101C20006AE070E00E94040F9B0120313105B4F797
:101C30008DB79EB78E1B9F0B0FB6F8949EBF0FBE3D
:101C40008DBFEDB6FEB60894E11CF11C80E3EDB744
:101C5000FEB7818388E7F70181836DB77EB76D5F3B
:101C60007F4F8D2D9B8140E150E00E941F0F870127
:101C700007C0992787FD90950E94170FF80181836F
:101C8000F80182810F5F1F4F882399F7C701B501C3
:101C9000A4019301820171010E94FF0629813A810A
:101CA0000FB6F8943EBF0FBE2DBF0F900F900F9050
:101CB000CF91DF911F910F91FF90EF90DF90CF9028
:101CC000BF90AF909F908F907F906F905F904F905C
:101CD0003F902F9008952F923F924F925F926F9274
:101CE0007F928F929F92AF92BF92CF92EF92FF928C
:101CF0000F931F93DF93CF9300D0CDB7DEB75C0176
:101D00003A014B01290118012DB73EB73A832983C7
:101D1000B7FE04C0882799278A199B09E2E0F0E002
:101D200006C031966AE070E00E94040FCB018A3051
:101D30009105BCF7B7FC31968DB79EB78E1B9F0BF4
:101D40000FB6F8949EBF0FBE8DBF0DB71EB70F5FC5
:101D50001F4FC501B8014AE050E00E941F0FC801A3
:101D6000B401A301920181010E94FF0629813A81F9
:101D70000FB6F8943EBF0FBE2DBF0F900F90CF91BE
:101D8000DF911F910F91FF90EF90CF90BF90AF9098
:101D90009F908F907F906F905F904F903F902F908B
:101DA0000895629FD001739FF001829FE00DF11DA5
:101DB000649FE00DF11D929FF00D839FF00D749FC5
:101DC000F00D659FF00D9927729FB00DE11DF91F71
:101DD000639FB00DE11DF91FBD01CF0111240895CE
:101DE000AA1BBB1B51E107C0AA1FBB1FA617B70741
:101DF00010F0A61BB70B881F991F5A95A9F780955D
:101E00009095BC01CD01089597FB092E07260AD0B5
:101E100077FD04D0E5DF06D000201AF470956195B7
:101E20007F4F0895F6F7909581959F4F08959111F2
:101E3000089581568A5108F4805285580895FB010F
:101E40009F01E8944230C4F04532B4F44A3029F49A
:101E500097FB1EF4909581959F4F642F77270E94E2
:101E6000F00E805D8A330CF0895D8193CB01009781
:101E7000A1F716F45DE251931082C9010C94400F52
:101E8000DC01FC01672F71917723E1F7329704C0E1
:101E90007C916D9370836291AE17BF07C8F308956C
:041EA000F894FFCFE4
:101EA400506963746F72202D20494C4939333431A1
:101EB400206472697665722056302E322E350020E9
:101EC400204D61736820200020204F7279784220D1
:101ED4000048656C6C6F20776F726C640047616DAD
:101EE40065004F7665720010001000E007000000E6
:101EF40000000000000000000000000000000000DE
:101F0400000000000000000000E0070000000000E6
:101F14000000000000000000F800F800F800F800DD
:101F240000000000000000000000000000000000AD
:101F340000000000F800F800F800F800F800F800CD
:101F4400F800F8000000000000000000000000009D
:101F54000000F800F800F800F800F800F800F800B5
:101F6400F800F800F8000000000000000000000085
:101F7400F800F800F800F800F800F800F800F8009D
:101F8400F800F800F800F80000000000000000006D
:101F9400F800F8FFFFFFFF00F800F800F800F8FF72
:101FA400FFFFFF00F800F800000000000000000040
:101FB400F8FFFFFFFFFFFFFFFF00F800F8FFFFFF40
:101FC400FFFFFFFFFF00F800000000000000F80022
:101FD400F8FFFFFFFFFFFFFFFF00F800F8FFFFFF20
:101FE400FFFFFFFFFF00F800F80000000000F8000A
:101FF400F8FFFF1F001F00FFFF00F800F8FFFF1F9E
:10200400001F00FFFF00F800F80000000000F800C7
:10201400F800F81F001F0000F800F800F800F81F8F
:10202400001F0000F800F800F80000000000F800AD
:10203400F800F800F800F800F800F800F800F800DC
:10204400F800F800F800F800F80000000000F800BC
:10205400F800F800F800F800F800F800F800F800BC
:10206400F800F800F800F800F80000000000F8009C
:10207400F800F800F800F800F800F800F800F8009C
:10208400F800F800F800F800F80000000000F8007C
:10209400F8000000F800F800F80000000000F80064
:1020A400F800F8000000F800F80000000000F80054
:1020B400000000000000F800000000000000000024
:1020C400F800000000000000F80000E00700000035
:1020D40000000000000000000000000000000000FC
:1020E400000000000000000000E00702000200FF02
:1020F400FF00000000FFFF0025270510093A784D76
:1021040005180D383A1F1F1A180A0F064587320A98
:06211400070207050000B0
:00000001FF
