:100000000C9446030C9463030C9463030C946303F5
:100010000C9463030C9463030C9463030C946303C8
:100020000C9463030C9463030C9463030C946303B8
:100030000C9463030C9463030C9463030C946303A8
:100040000C9463030C9463030C9463030C94630398
:100050000C9463030C9463030C9463030C94630388
:100060000C9463030C9463030C9463030C94630378
:100070000C9463030C9463030C94630350696374DE
:100080006F72202D20494C49393334312064726914
:100090007665722056302E332E30000000000000AE
:1000A000000000183C3C181800180036360000000C
:1000B00000000014143E143E1414001C36307C3032
:1000C000307E0066640C0818133300386C6C396E8F
:1000D0006E3B0018180000000000000C1C181818D7
:1000E0001C0C00181C0C0C0C1C1800082A1C1422D8
:1000F0000000000008083E080800000000000000A2
:100100001818300000003E00000000000000000051
:100110001818000C0C1C183830300018246E766645
:100120002418001838181818183C003C66060C18DB
:10013000307E003C66061C06663C000E1E36667F5E
:100140000606007E60607C06663C003C60607C6663
:10015000663C007E060E0C0C1818003C66663C6679
:10016000663C003C66663E06060600000018180065
:10017000181800000018180018183000061C301C51
:1001800006000000003E003E00000000301C061C7F
:100190003000003C660C18001818001C224D554E0B
:1001A000201E001C3E36367F6363007C66667C66DC
:1001B000667C003C66606060663C007C66666666E5
:1001C000667C007E60607C60607E007E60607C603B
:1001D0006060003C6660606E663C006666667E66D7
:1001E0006666003C18181818183C001E0C0C0C0C05
:1001F0006C3800666C7870786C6600606060606077
:10020000607E0063777F6B6363630066767E7E6EDD
:100210006666003C66666666663C007C66667C6078
:100220006060003C666666666E3C067C66667C784E
:100230006C66003C66703C0E663C007E1818181810
:100240001818006666666666663C00636336361C90
:100250001C08006363636B6B36360066663C183CB3
:100260006666006666663C181818007E060C183034
:10027000607E003C30303030303C00303038181C6C
:100280000C0C003C0C0C0C0C0C3C00081422000064
:100290000000000000000000003E000C060200000C
:1002A00000000000001E3636361F0030303C363667
:1002B000363C0000001C3630361C0006061E363662
:1002C000361F0000001C363C301C000E1818183C6D
:1002D00018180000001E36361E061C30303C36361C
:1002E0003636000018001818181800000C000C0C06
:1002F0000C2C183030363C3C3636001818181818BC
:10030000180C000000766B6B6B630000003C363607
:1003100036360000001C3636361C0000003C3636EF
:10032000363C3000001E3636361E0600003C3230A9
:1003300030300000001E301C063C0000183C18182D
:10034000180C000000363636361C000000363636F3
:100350001C08000000636B6B3E14000000361C0894
:100360001C360000003636361E061C00003E0C18F7
:10037000303E000C08183018080C0008080808085F
:1003800008080018080C060C081800000030490680
:10039000000000000000000000000000181818080D
:1003A000001800363600000000000000367F3636A8
:1003B0007F36001C36307C30307E0066640C0818B6
:1003C000133300386C6C396E6E3B00181800000057
:1003D0000000000C1C1818181C0C00181C0C0C0C2D
:1003E0001C1800082A1C14220000000008083E08FF
:1003F00008000000000000001818300000003E0057
:1004000000000000000000001818000C0C1C183838
:10041000303000003C66766E663C000018381818D4
:10042000183C00003C660E3C707E00003C661C06DA
:10043000663C00001C2C4C4C7E0C00007C607C0652
:10044000663C00003C607C66663C00007E060C1842
:10045000181800003C663C66663C00003C66663E40
:10046000063C0000001818001818000000181800BA
:1004700018183000061C301C06000000003E003E2C
:1004800000000000301C061C300000007CCECE189E
:100490000018001C224D554E201E0000387CE6FE40
:1004A000E6E60000FCE6FCE6E6FC00007CE6E0E0B8
:1004B000E67C0000FCE6E6E6E6FC0000FEE0FCE090
:1004C000E0FE0000FEE0FCE0E0E000007CE6E0EEA4
:1004D000E67C0000E6E6FEE6E6E600007C3838381A
:1004E000387C0000FE1C1CDCDC780000E6ECF8F830
:1004F000ECE60000E0E0E0E0E6FE0000C6EEFED63E
:10050000C6C60000E6F6FEEEE6E600007CE6E6E69D
:10051000E67C0000FCE6E6FCE0E000007CE6E6EEBF
:10052000EE7C0E00FCE6E6FCECE600007CE27C0ED5
:10053000EE7C0000FE38383838380000E6E6E6E6A3
:10054000E67C0000E6E6E6E67C380000C6C6D6D6C5
:10055000EEC60000EEF4783C5EEE0000C6EE7C389D
:1005600038380000FE1C3870E0FE003C303030307F
:10057000303C00303038181C0C0C003C0C0C0C0CBF
:100580000C3C0008142200000000000000000000E5
:10059000003E000C0602000000000000007CECECB5
:1005A000EC760000E0E0FCEEEEFC0000007CEEE00B
:1005B000EE7C00000E0E7EEEEE7E0000007CEEFE75
:1005C000E07E00003C7670FE707000007CEEEE7EF7
:1005D0000EEE7C00E0E0FCEEEEEE00003800383875
:1005E000383800001C001C1CDCDC7800E0E0E6F879
:1005F000ECE60000783838383838000000FCD6D6F1
:10060000D6D6000000FCE6E6E6E60000007CE6E662
:10061000E67C000000FCEEEEFCE0E000007EEEEE8A
:100620007E0E0E0000EEF8F0E0E00000007EE0FE3E
:100630000EFC00007070FE70763C000000EEEEEEE6
:10064000EE7E000000C6C6EE7C38000000C6D6D69E
:10065000EEC6000000EE74385CEE000000C66E3C92
:100660003870E00000FE1C3870FE000C08183018CE
:10067000080C00080808080808080018080C060CF0
:1006800008180000003049060000000011241FBEB9
:10069000CFEFD0E1DEBFCDBF13E0A0E0B1E0EAEBE9
:1006A000FEE102C005900D92A635B107D9F713E01F
:1006B000A6E5B3E001C01D92A735B107E1F70E949E
:1006C0006C0C0C945B0F0C94000090E0887F907091
:1006D00025E0880F991F2A95E1F770E06C7F707014
:1006E000682B792B83E0660F771F8A95E1F7469593
:1006F0004695469550E0642B752BCB0108951498D0
:1007000088B91398139A149A089588B91398139A6C
:10071000089598B91398139A88B91398139A08955D
:10072000159886B1159A0895159896B1159A159849
:1007300086B1159A392F20E0280F311DC90108957F
:10074000181614F4119A0895882311F41198089535
:1007500082B192E0892782B90895DC019C01472F7C
:1007600087C0808188B91398139A818188B91398BA
:10077000139A828188B91398139A838188B9139840
:10078000139A848188B91398139A858188B913982C
:10079000139A868188B91398139A878188B9139818
:1007A000139A808588B91398139A818588B913980C
:1007B000139A828588B91398139A838588B91398F8
:1007C000139A848588B91398139A858588B91398E4
:1007D000139A868588B91398139A878588B91398D0
:1007E000139A808988B91398139A818988B91398C4
:1007F000139A828988B91398139A838988B91398B0
:10080000139A848988B91398139A858988B913989B
:10081000139A868988B91398139A878988B9139887
:10082000139A808D88B91398139A818D88B913987B
:10083000139A828D88B91398139A838D88B9139867
:10084000139A848D88B91398139A858D88B9139853
:10085000139A868D88B91398139A878D88B913983F
:10086000139AB096915009F07CCF415020503E4FE2
:10087000442319F0F90191E1F5CF972F990F80E00A
:10088000FD01E80FF91F05C0819188B91398139AEB
:1008900061506623C9F70895EF92FF920F931F935B
:1008A000CF93DF93162F072F7A01C62FD72F0E94E1
:1008B0007F03212F302FC9019C014F2D87C08181DB
:1008C00088B91398139A808188B91398139A8381F1
:1008D00088B91398139A828188B91398139A8581DD
:1008E00088B91398139A848188B91398139A8781C9
:1008F00088B91398139A868188B91398139A8185B9
:1009000088B91398139A808588B91398139A8385A8
:1009100088B91398139A828588B91398139A858594
:1009200088B91398139A848588B91398139A878580
:1009300088B91398139A868588B91398139A818970
:1009400088B91398139A808988B91398139A838960
:1009500088B91398139A828988B91398139A85894C
:1009600088B91398139A848988B91398139A878938
:1009700088B91398139A868988B91398139A818D28
:1009800088B91398139A808D88B91398139A838D18
:1009900088B91398139A828D88B91398139A858D04
:1009A00088B91398139A848D88B91398139A878DF0
:1009B00088B91398139A868D88B91398139AB096AC
:1009C000915009F07CCF415020503E4F442319F004
:1009D000F90191E1F5CF4E2D9F2D990F80E0FE0199
:1009E000E80FF91F0AC0818188B91398139A808192
:1009F00088B91398139A415032964423A1F7DF9196
:100A0000CF911F910F91FF90EF900895FF920F9358
:100A10001F93062FF42E152F0E947F0308B923C0C1
:100A20001398139A1398139A1398139A1398139A66
:100A30001398139A1398139A1398139A1398139A56
:100A40001398139A1398139A1398139A1398139A46
:100A50001398139A1398139A1398139A1398139A36
:100A60008150F1F61150112311F081E1F9CF4F2D92
:100A700003C01398139A41504423D9F71F910F9143
:100A8000FF900895EF92FF920F931F93F62E072F7A
:100A9000E42E152F0E947F0364C008B91398139A9F
:100AA000F8B81398139A08B91398139AF8B81398CA
:100AB000139A08B91398139AF8B81398139A08B9A7
:100AC0001398139AF8B81398139A08B91398139AAD
:100AD000F8B81398139A08B91398139AF8B813989A
:100AE000139A08B91398139AF8B81398139A08B977
:100AF0001398139AF8B81398139A08B91398139A7D
:100B0000F8B81398139A08B91398139AF8B8139869
:100B1000139A08B91398139AF8B81398139A08B946
:100B20001398139AF8B81398139A08B91398139A4C
:100B3000F8B81398139A08B91398139AF8B8139839
:100B4000139A08B91398139AF8B81398139A08B916
:100B50001398139AF8B81398139A815009F09DCFFF
:100B60001150112311F081E1F8CF4E2D07C008B9C3
:100B70001398139AF8B81398139A41504423B9F76D
:100B80001F910F91FF90EF900895FF920F931F9385
:100B90008B01F42E0E947F03C8016F2D70E00E942C
:100BA000AD031F910F91FF900895FF920F931F9334
:100BB000162F072FF42E0E947F0318B817B8159828
:100BC000159A212F302FC901FC0190E005C015981E
:100BD00086B1159A81939F5F9F15C8F38FEF87B9F0
:100BE0001F910F91FF900895AF92BF92CF92DF9225
:100BF000EF92FF920F931F937B018C0159016A01C1
:100C00008AE20E947F03C7010E948903C5010E94F6
:100C100089038BE20E947F03C8010E948903C601F9
:100C20000E9489031F910F91FF90EF90DF90CF906A
:100C3000BF90AF9008951F93182F86E30E947F0303
:100C4000113049F0113028F0123039F0133059F4D6
:100C500006C088E405C088E203C088E801C088EEC9
:100C600088B91398139A109356031F9108956F92A1
:100C70007F928F929F92AF92BF92CF92DF92EF922C
:100C8000FF920F931F93CF93DF93D82E4A015B01FE
:100C90003901BA01F50180528F3508F04BC08C2D17
:100CA00090E043E0880F991F4A95E1F7615070404A
:100CB0009B01280F391F3197AF01480F591FC501FC
:100CC000B4010E94F405CD2DD0E0A09733E0CC0F05
:100CD000DD1F3A95E1F7CE0DDF1D8CE20E947F0308
:100CE00080E090E0FE01E80FF91F749150E019C018
:100CF000662329F078B81398139A68B804C018B915
:100D00001398139A08B91398139A2F5F2C1580F330
:100D10003F5F383029F0469520E0642F6723F6CFF7
:100D20005F5F5C1518F440E830E0F6CF019688303C
:100D30009105C1F6DF91CF911F910F91FF90EF9038
:100D4000DF90CF90BF90AF909F908F907F906F90EB
:100D500008952F923F924F925F926F927F928F925F
:100D60009F92AF92BF92CF92DF92EF92FF920F933A
:100D70001F93DF93CF93CDB7DEB727970FB6F894C5
:100D8000DEBF0FBECDBF9A838983752E3C832B8334
:100D9000180127016C2C842F4D838C2C992453E04F
:100DA000880C991C5A95E1F7972D9F838E83262FE7
:100DB000372FC9015C01DD24D3941BC08A3041F474
:100DC000A80CB91C8D81972D9C013F832E8310C0E8
:100DD0004E815F81B5012B813C8181017201C62C5E
:100DE0000E9437068E819F81880D991D9F838E8377
:100DF000D3949D2D9150E981FA81E90FF11D8081F5
:100E00008823E1F6892F27960FB6F894DEBF0FBE30
:100E1000CDBFCF91DF911F910F91FF90EF90DF90A9
:100E2000CF90BF90AF909F908F907F906F905F908A
:100E30004F903F902F9008952F923F924F925F9244
:100E40006F927F928F929F92AF92BF92CF92DF92DA
:100E5000EF92FF920F931F93DF93CF93CDB7DEB73F
:100E600027970FB6F894DEBF0FBECDBF3C01552EBD
:100E70003A8329831C830B8317014C2C842F4D83C9
:100E8000462F8C2C992463E0880C991C6A95E1F715
:100E9000952F9F838E83242F372FC9015C0106C0B5
:100EA0008E819F81880D991D9F838E83F301089405
:100EB000611C711CD4909AE0D91641F4A80CB91C9D
:100EC0008D81952D9C013F832E83F0CF8D2D4E81FA
:100ED0005F81B50129813A810B811C817101C42C8C
:100EE0000E943706DD20E1F680E027960FB6F894E1
:100EF000DEBF0FBECDBFCF91DF911F910F91FF904D
:100F0000EF90DF90CF90BF90AF909F908F907F90A9
:100F10006F905F904F903F902F9008953F924F9227
:100F20005F926F927F928F929F92AF92BF92CF9279
:100F3000DF92EF92FF920F931F93CF93DF934901BC
:100F4000380127013C2C5A01EB01982F9F708295A4
:100F50008F709A3018F0E7E3DE2E02C070E3D72ED0
:100F6000D90E8A3010F0895C01C0805DA501BE01F8
:100F7000940183017201C32C0E943706A501485FCA
:100F80005F4FBE018D2D94010E94370682E0DF91F4
:100F9000CF911F910F91FF90EF90DF90CF90BF9076
:100FA000AF909F908F907F906F905F904F903F9009
:100FB0000895EF92FF920F931F938B019C017A018A
:100FC000A90198010E94F4058CE20E947F03C701E9
:100FD0000E9489031F910F91FF90EF900895AF92A7
:100FE000BF92CF92DF92EF92FF920F931F93CF9316
:100FF000DF935801DC01FA012617370718F469015D
:101000008B0102C06B018901EA17FB0718F47F010D
:10101000ED0102C07D01EF01B601C7019801AE01EB
:101020000E94F4052196CE19DF09BE0180E090E010
:101030000F5F1F4F0C191D09980140E050E00E94FE
:10104000E40E9B01AC01203080E0380781E04807C6
:1010500080E0580760F0A9014F5F5F4F8CE2B50157
:101060000E9442058CE3B5014FEF5FEF03C08CE2B5
:10107000B501A9010E944205DF91CF911F910F9107
:10108000FF90EF90DF90CF90BF90AF900895CF93F7
:10109000DF93EC018091560380FF09C060E070E0AF
:1010A00080E090E02FE331E04FEE50E008C060E0D8
:1010B00070E080E090E02FEE30E04FE351E00E94DE
:1010C000F4058CE2BE0140E45CE90E9442058CE339
:1010D000BE0140EC5FE80E944205DF91CF91089588
:1010E000CF92DF92EF92FF920F931F938C01CB016F
:1010F000BA01FB01D801CD90DC9011971296ED90CA
:10110000FC901397EC0DFD1D9F0121503040F7011D
:10111000E80FF91FAF01415050400E94F4050C5FE9
:101120001F4FEC9CA001ED9C500DFC9C500D112418
:101130008CE2B8010E944C041F910F91FF90EF9038
:10114000DF90CF9008956F927F928F929F92AF928F
:10115000BF92CF92DF92EF92FF920F931F93CF93A4
:10116000DF934C016A017B01213019F40E94700861
:1011700062C0222309F45FC0FC0180819181082FA5
:10118000000FE401249662807380A22EBB24D70155
:101190001197A69CF001A79CF00DB69CF00D1124B0
:1011A000BA01615070409C01A29EC001A39E900DA7
:1011B000B29E900D11249B01280F391FAD014E0FD7
:1011C0005F1FC701B6010E94F4058CE20E947F03F5
:1011D00010E0EE24FF24E01AF10A28C0F401408157
:1011E0005181FE01BA0110C0818188B91398139A08
:1011F000808188B91398139A215030402115310508
:1012000099F73296615070406115710511F09501A2
:10121000F5CF440F551FC40FD51F119711F0CE0DF8
:10122000DF1D1097D9F608946108710861147104E4
:1012300011F0D501F6CFDF91CF911F910F91FF9063
:10124000EF90DF90CF90BF90AF909F908F907F9066
:101250006F9008958F929F92AF92BF92CF92DF923C
:10126000EF92FF920F931F93CF93DF935C01CB011B
:10127000BA01DE2C48018901C818D21AEC2CFF24CF
:101280009701260F371FCD2DD0E0AE01480F591F13
:101290000E94F40597012F5F3F4FF5014081518176
:1012A000842F90E028173907CCF0209FB001219FB0
:1012B000700D309F700D11246E5F7F4F660F771F8A
:1012C0006A0D7B1D2196C29FA001C39F500DD29F26
:1012D000500D11248CE20E944C0440C084E090E048
:1012E000A80EB91E049FE001059FD00D149FD00DDC
:1012F0001124C80DD91DCC0FDD1FCA0DDB1DECEF6D
:10130000FFEFAE0EBF1E1D2D1E5F8CE20E947F03FD
:101310004C2D4E5FC3946C2D70E0660F771F9701C4
:101320002095309519C0942FFE0109C0818188B99C
:101330001398139A808188B91398139A3296915012
:10134000A9F7C60FD71FF50180819181820F931FE6
:10135000880F991FC80FD91F115029F7DF91CF911E
:101360001F910F91FF90EF90DF90CF90BF90AF90C3
:101370009F908F9008952F923F924F925F926F921D
:101380007F928F929F92AF92BF92CF92DF92EF9215
:10139000FF920F931F93DF93CF9300D00F92CDB79F
:1013A000DEB79B838A833A014B012983F60117013B
:1013B0002801213049F48A819B81980187016501C8
:1013C0007F010E942A097DC0FA2CF218DC2CD01A69
:1013D000EA81FB81E080EE0C2F2D30E02F5F3F4F44
:1013E000C22ECC0CF9810F2F10E0D40111978D2D56
:1013F00090E00196809FF001819FF00D909FF00D8D
:101400001124BA0161507040029FC001039F900DEA
:10141000129F900D11249B01280F391FAD014E0F13
:101420005F1FC401B3010E94F405EA81FB81808142
:101430009181489E5001499EB00C589EB00C1124D9
:10144000A20CB31CAA0CBB1C3496AE0EBF1EF2E05D
:10145000DF0E8CE20E947F0392E0992E9F0CF394A2
:101460002F2D30E0220F331F2C193109209FB0019E
:10147000219F700D309F700D11246E0D711D1CC0C9
:10148000A92D8A010EC0F801818188B91398139A99
:10149000808188B91398139A91509923A1F70E5F10
:1014A0001F4FA15011F09981F8CF420F531FB15037
:1014B000BB2331F7A60EB71EDA9419F0A501B98146
:1014C000F7CF0F900F900F90CF91DF911F910F9159
:1014D000FF90EF90DF90CF90BF90AF909F908F9054
:1014E0007F906F905F904F903F902F9008954F9214
:1014F0005F926F927F928F929F92AF92BF92CF92A4
:10150000DF92EF92FF920F931F93CF93DF936901C6
:101510007A0158019B01AC018601E7014B018C0C5B
:101520009D1C7C01EC0EFD1EB401C7012901401A6F
:10153000510A3A016C1A7D0AA5010E94D907CD28EB
:1015400029F0B201C701A5010E94D907209729F00F
:10155000B401C301A5010E94D907012B39F0CD2B9D
:1015600029F0B201C301A5010E94D907DF91CF91F3
:101570001F910F91FF90EF90DF90CF90BF90AF90B1
:101580009F908F907F906F905F904F9008954F92B3
:101590005F926F927F928F929F92AF92BF92CF9203
:1015A000DF92EF92FF920F931F93CF93DF932B0164
:1015B0003C0149015A010E94770A8A149B0431F0C8
:1015C0009501A401C301B2010E94770ADF91CF9176
:1015D0001F910F91FF90EF90DF90CF90BF90AF9051
:1015E0009F908F907F906F905F904F9008952F9273
:1015F0003F924F925F926F927F928F929F92AF92A3
:10160000BF92CF92DF92EF92FF920F931F93CF93EF
:10161000DF932B013C011901442321F4A9010E940D
:10162000D90726C0842F90E0CC27DD27C81BD90B13
:101630004C01AA24BB2475016401C301B201A701B6
:10164000960181010E94C70AC5010196C80FD91FE2
:10165000CA0DDB1DD7FD07C0C819D9090894810838
:101660009108C819D9098816990610F05C01E3CFD2
:10167000DF91CF911F910F91FF90EF90DF90CF906E
:10168000BF90AF909F908F907F906F905F904F90A2
:101690003F902F9008951F93DF93CF93CDB7DEB780
:1016A0006E970FB6F894DEBF0FBECDBF85B78068CA
:1016B00085BF85B7806885BF8FE781B98FEF87B910
:1016C00088E382B980E89BEB0197F1F7129A80E0FA
:1016D00095E02CE231E0F9013197F1F70197D9F764
:1016E00088E20E947F0381E10E947F038BEC0E94CD
:1016F0007F0311E018B91398139A80EC0E947F03BE
:1017000086E288B91398139A88E088B91398139AD7
:1017100081EC0E947F0380E188B91398139A85ECCD
:101720000E947F0385E388B91398139A8EE388B9E2
:101730001398139A86E30E947F0388E488B913986C
:10174000139A80EB0E947F038AE488B91398139A56
:1017500081EB0E947F0318B81398139A8BE188B924
:101760001398139A86EB0E947F038AE088B9139836
:10177000139A82E888B91398139A87E288B9139864
:10178000139A18B81398139A87EC0E947F0385EB7D
:1017900088B91398139A86EF0E947F0318B913989B
:1017A000139A18B81398139A18B81398139A82EFCB
:1017B0000E947F0318B81398139A86E20E947F0351
:1017C00018B91398139A8AE30E947F0385E588B9B4
:1017D0001398139ADE011196E7E4F3E08FE001908D
:1017E0000D928150E1F780EEBE016F5F7F4F4FE0B9
:1017F0000E94C505DE015096E8E3F3E08FE001901A
:101800000D928150E1F781EEBE01605F7F4F4FE0A6
:101810000E94C50584E30E947F0384EB0E947F033E
:1018200018B81398139A87EB0E947F0387E088B952
:101830001398139A80E090E00E94470889E20E9482
:101840007F038CE291E02CE231E0F9013197F1F76E
:101850000197D9F781E00E94A0036E960FB6F89425
:10186000DEBF0FBECDBFCF91DF911F910895CF9303
:10187000DF9380E00E941B0660E070E080E090E073
:101880002FE030E04FE750E00E94F4058CE260E08A
:1018900070E040E058E00E944C0460E270E080E0BC
:1018A00090E020EA30E04FEF50E00E94F4058CE237
:1018B0000E947F03C0E0D0E00AC0FE01EE0FFF1FD0
:1018C00085919591A591B4910E9489032196D7FFA6
:1018D000F4CFDF91CF9108952F923F924F925F9274
:1018E0006F927F928F929F92AF92BF92CF92DF9230
:1018F000EF92FF920F931F93DF93CF93CDB7DEB795
:101900002F970FB6F894DEBF0FBECDBF279A80E0A9
:101910000E944B0B81E00E941B068CE790E040E0A8
:1019200050E060E070E020E038EF00E010E0BBE95C
:10193000EB2EB0E0FB2ECC24C3940E941C0780E069
:1019400091E040E050E068E070E020E030E000EE40
:101950001AEF0E94A90660E070E088E190E02FE7AE
:1019600030E047E950E006EC11E30E94EF076624FF
:10197000772422C0430152018D2DB501A40120EE30
:101980003AEF00E010E0ABE9EA2EA0E0FA2ECC241A
:10199000C3940E94370628E030E0420E531ED394D1
:1019A00038E94316510431F788E090E0680E791E5B
:1019B00090E46916710431F0D62CDD0CF8E14F2E5D
:1019C000512CD8CF89E091E040E450E068E070E02D
:1019D00020E030E00FE114E8E3E9EE2EE3E0FE2E34
:1019E000CC24C3940E94A90690E0B0E46B2E712C25
:1019F00023C0430152018D2DB501A4012FE134E82C
:101A000000E010E0A3E9EA2EA3E0FA2ECC24C39470
:101A10009D870E943706A8E0B0E04A0E5B1ED39473
:101A20009D85B8E94B16510421F7905FE8E0F0E09E
:101A30006E0E7F1E903829F0D92EF8E14F2E512CD2
:101A4000D8CF88E291E040E050E068E970E021E022
:101A50000E94A30888E291E040E050E068EA70E06C
:101A600021E00E94A30888E291E040E050E068EBAA
:101A700070E021E0EE24FF248701E7E0AE2EB12CD8
:101A8000E7E0CE2ED12C0E94BB0988E291E040E134
:101A900050E068EB70E021E038E0E32EF12C012DFE
:101AA000112DBFE0AB2EB12CB7E0CB2ED12C0E9474
:101AB000BB0988E291E040E050E068EC70E021E092
:101AC000E12CF12CA8E00A2F112DF7E0AF2EB12C5C
:101AD000FFE0CF2ED12C0E94BB0988E291E040E1CB
:101AE00050E068EC70E021E0E8E0EE2EF12CE8E058
:101AF0000E2F112D3FE0A32EB12C3FE0C32ED12C91
:101B00000E94BB0902E010E1E12EAA24BB2480E27E
:101B100090E0602F70E00E94030FF62ED02ED69436
:101B200018E90BC04E2D612F8CE293E050E070E07D
:101B30002D2D0E94A308100FFA94FF2099F7802FF3
:101B4000880F0894A11CB11CF5E0AF16B10419F080
:101B5000E00E082FDCCF88E291E040E550E068E934
:101B600070E022E00E94A30820E830E03C832B8351
:101B70001A8219823BC08B819C819A878987AD81AB
:101B8000BE81BC87AB8729803A804E845F846F809A
:101B90007884B3E08B2E912C840C951C88E291E024
:101BA00049855A856B857C8524E082017101640139
:101BB00053010E94BB092D813E812E5E3F4F3E8323
:101BC0002D838E859F8504969F878E87203A3105C9
:101BD00091F6AB81BC815296BC83AB83E981FA81DB
:101BE0003496FA83E983A83CB10569F029813A81EA
:101BF0002D5F3F4F38872F8388E590E09E838D834C
:101C00001F861E86B8CF82E191E040E850E068E090
:101C100070E02FEF3FEF00E010E0ABE9EA2EA0E02C
:101C2000FA2EF2E0CF2E0E94A9068EE191E040E864
:101C300050E068E170E020E038EFE4E0CE2E0E9452
:101C4000A90683E291E040E850E068E370E020E01C
:101C500038EF0E94A9068CE790E040E050E060E099
:101C600070E020EE37E0CC24C3940E94A9062F9A9E
:101C7000FFCF4F925F926F927F928F929F92AF921F
:101C8000BF92CF92EF92FF920F931F93DF93CF9368
:101C9000CDB7DEB72B970FB6F894DEBF0FBECDBF22
:101CA0003A014B0129015E010894A11CB11CB50148
:101CB0004AE050E00E942A0FC501B401A30192013D
:101CC0000E94A9062B960FB6F894DEBF0FBECDBFBB
:101CD000CF91DF911F910F91FF90EF90CF90BF9028
:101CE000AF909F908F907F906F905F904F900895EE
:101CF0002F923F924F925F926F927F928F929F921C
:101D0000AF92CF92DF92EF92FF920F931F93DF93E8
:101D1000CF93CDB7DEB760970FB6F894DEBF0FBE96
:101D2000CDBF9D878C873A014B0129011801FF86A1
:101D3000EE86DC2CAA2011F40E94390E8C859D853C
:101D40008E010F5F1F4FB8014AE050E00E942A0F3A
:101D500090E001C09F5FF801E90FF11D80818823A9
:101D6000C9F70DC080E2B401A30192018101EE84A4
:101D7000FF84CD2C988B0E94370698899F5F9A1517
:101D800088F3CE010196B401A30192018101EE8492
:101D9000FF84CD2C0E94A90660960FB6F894DEBF92
:101DA0000FBECDBFCF91DF911F910F91FF90EF90AC
:101DB000DF90CF90AF909F908F907F906F905F90CB
:101DC0004F903F902F900895629FD001739FF00134
:101DD000829FE00DF11D649FE00DF11D929FF00DBB
:101DE000839FF00D749FF00D659FF00D9927729FF2
:101DF000B00DE11DF91F639FB00DE11DF91FBD017D
:101E0000CF011124089597FB092E07260AD077FDEC
:101E100004D00CD006D000201AF4709561957F4F45
:101E20000895F6F7909581959F4F0895AA1BBB1BC7
:101E300051E107C0AA1FBB1FA617B70710F0A61BCA
:101E4000B70B881F991F5A95A9F780959095BC01EB
:101E5000CD010895FB019F01E8944230C4F0453262
:101E6000B4F44A3029F497FB1EF4909581959F4F66
:101E7000642F77270E94160F805D8A330CF0895DEE
:101E80008193CB010097A1F716F45DE25193108284
:101E9000C9010C944B0FDC01FC01672F7191772372
:101EA000E1F7329704C07C916D9370836291AE1715
:0A1EB000BF07C8F30895F894FFCFB0
:101EBA0020204D61736820200020204F72797842DB
:101ECA00200048656C6C6F20776F726C6400476104
:101EDA006D65004F7665720010001000E007000083
:101EEA0000000000000000000000000000000000E8
:101EFA0000000000000000000000E00700000000F1
:101F0A00000000000000000000F800F800F800F8E7
:101F1A0000000000000000000000000000000000B7
:101F2A000000000000F800F800F800F800F800F8D7
:101F3A0000F800F8000000000000000000000000A7
:101F4A00000000F800F800F800F800F800F800F8BF
:101F5A0000F800F800F8000000000000000000008F
:101F6A0000F800F800F800F800F800F800F800F8A7
:101F7A0000F800F800F800F8000000000000000077
:101F8A0000F800F8FFFFFFFF00F800F800F800F87B
:101F9A00FFFFFFFF00F800F800000000000000004B
:101FAA0000F8FFFFFFFFFFFFFFFF00F800F8FFFF49
:101FBA00FFFFFFFFFFFF00F800000000000000F82D
:101FCA0000F8FFFFFFFFFFFFFFFF00F800F8FFFF29
:101FDA00FFFFFFFFFFFF00F800F80000000000F815
:101FEA0000F8FFFF1F001F00FFFF00F800F8FFFFC7
:101FFA001F001F00FFFF00F800F80000000000F8B3
:10200A0000F800F81F001F0000F800F800F800F8B8
:10201A001F001F0000F800F800F80000000000F898
:10202A0000F800F800F800F800F800F800F800F8E6
:10203A0000F800F800F800F800F80000000000F8C6
:10204A0000F800F800F800F800F800F800F800F8C6
:10205A0000F800F800F800F800F80000000000F8A6
:10206A0000F800F800F800F800F800F800F800F8A6
:10207A0000F800F800F800F800F80000000000F886
:10208A0000F8000000F800F800F80000000000F86E
:10209A0000F800F8000000F800F80000000000F85E
:1020AA0000000000000000F800000000000000002E
:1020BA0000F800000000000000F80000E00700003F
:1020CA000000000000000000000000000000000006
:1020DA0000000000000000000000E007020002000B
:1020EA00FFFF00000000FFFF0025270510093A78CE
:1020FA004D05180D383A1F1F1A180A0F0645873260
:06210A000A0702070500B0
:00000001FF
