:100000000C9494040C94B1040C94B1040C94B104B9
:100010000C94B1040C94B1040C94B1040C94B1048C
:100020000C94B1040C94B1040C94B1040C94B1047C
:100030000C94B1040C94B1040C94B1040C94B1046C
:100040000C94B1040C94B1040C94B1040C94B1045C
:100050000C94B1040C94B1040C94B1040C94B1044C
:100060000C94B1040C94B1040C94B1040C94B1043C
:100070000C94B1040C94B1040C94B1040000000081
:100080000000FFFFFFFFFFFFFFFFFFFFFFFFFFFF7E
:10009000FFFFFFFFFFFFFFFFFFFFFFFFFFFFFFFF70
:1000A000FFFFFFFFFFFF0000000000000000000056
:1000B0000000FFFFFFFFFFFFFFFFFFFFFFFFFFFF4E
:1000C000FFFFFFFFFFFFFFFFFFFFFFFFFFFFFFFF40
:1000D000FFFFFFFFFFFF0000000000000000000026
:1000E0000000FFFFFFFFFFFFFFFFFFFFFFFFFFFF1E
:1000F000FFFFFFFFFFFFFFFFFFFFFFFFFFFFFFFF10
:10010000FFFFFFFFFFFF000000000000FFFFFFFFF9
:10011000FFFF00000000000000000000FFFF0000E3
:10012000FFFFFFFF0000FFFFFFFF0000FFFFFFFFDB
:10013000000000000000FFFFFFFFFFFFFFFFFFFFC9
:10014000FFFFFFFFFFFF0000FFFFFFFFFFFF0000BB
:10015000FFFFFFFF0000FFFFFFFF0000FFFFFFFFAB
:100160000000FFFFFFFFFFFFFFFFFFFFFFFFFFFF9D
:10017000FFFFFFFFFFFF0000FFFFFFFFFFFF00008B
:10018000000000000000FFFFFFFF0000FFFFFFFF77
:10019000000000000000FFFFFFFFFFFFFFFFFFFF69
:1001A000FFFFFFFFFFFF0000FFFFFFFFFFFF00005B
:1001B000FFFFFFFF0000FFFFFFFF0000FFFFFFFF4B
:1001C000FFFFFFFF0000FFFFFFFFFFFFFFFFFFFF3D
:1001D000FFFFFFFFFFFF0000FFFFFFFFFFFF00002B
:1001E000FFFFFFFF0000FFFFFFFF0000FFFFFFFF1B
:1001F000000000000000FFFFFFFFFFFFFFFFFFFF09
:10020000FFFFFFFFFFFFFFFFFFFFFFFFFFFFFFFFFE
:10021000FFFFFFFFFFFFFFFFFFFFFFFFFFFFFFFFEE
:10022000FFFFFFFFFFFFFFFFFFFFFFFFFFFFFFFFDE
:10023000FFFFFFFFFFFFFFFFFFFF0000FFFF0000CA
:1002400000000000FFFFFFFF0000000000000000B2
:10025000FFFFFFFFFFFFFFFFFFFFFFFFFFFFFFFFAE
:10026000FFFFFFFFFFFFFFFFFFFF0000FFFF00009A
:10027000FFFFFFFFFFFFFFFF0000FFFFFFFF00008A
:10028000FFFFFFFFFFFFFFFFFFFFFFFFFFFFFFFF7E
:10029000FFFFFFFFFFFFFFFFFFFF0000FFFF00006A
:1002A00000000000FFFFFFFF0000FFFFFFFF000056
:1002B000FFFFFFFFFFFFFFFFFFFFFFFFFFFFFFFF4E
:1002C000FFFFFFFFFFFFFFFFFFFF0000FFFFFFFF3C
:1002D000FFFF0000FFFFFFFF000000000000000024
:1002E000FFFFFFFFFFFFFFFFFFFFFFFFFFFFFFFF1E
:1002F000FFFFFFFFFFFFFFFFFFFF0000FFFF00000A
:1003000000000000FFFFFFFF0000FFFFFFFF0000F5
:10031000FFFFFFFFFFFFFFFFFFFFFFFFFFFFFFFFED
:10032000FFFFFFFFFFFFFFFFFFFFFFFFFFFFFFFFDD
:10033000FFFFFFFFFFFFFFFFFFFFFFFFFFFFFFFFCD
:10034000FFFFFFFFFFFFFFFFFFFFFFFFFFFFFFFFBD
:10035000FFFFFFFFFFFFFFFFFFFFFFFFFFFFFFFFAD
:10036000FFFFFFFFFFFFFFFFFFFFFFFFFFFFFFFF9D
:10037000FFFFFFFFFFFFFFFFFFFFFFFFFFFFFFFF8D
:10038000FFFF00000000000000000000FFFF000071
:1003900000000000FFFF000000000000FFFF000061
:1003A0000000000000000000FFFFFFFFFFFFFFFF55
:1003B000FFFFFFFFFFFF0000FFFFFFFFFFFF000049
:1003C000FFFFFFFFFFFF0000FFFFFFFFFFFFFFFF3B
:1003D000FFFF0000FFFFFFFFFFFFFFFFFFFFFFFF2B
:1003E000FFFFFFFFFFFF0000FFFFFFFFFFFF000019
:1003F0000000FFFFFFFF000000000000FFFFFFFF05
:10040000FFFF0000FFFFFFFFFFFFFFFFFFFFFFFFFA
:10041000FFFFFFFFFFFF0000FFFFFFFFFFFF0000E8
:10042000FFFFFFFFFFFFFFFFFFFF0000FFFFFFFFDA
:10043000FFFF0000FFFFFFFFFFFFFFFFFFFFFFFFCA
:10044000FFFFFFFFFFFF0000FFFFFFFFFFFF0000B8
:1004500000000000FFFF000000000000FFFFFFFFA2
:10046000FFFF0000FFFFFFFFFFFFFFFF0000000096
:100470000000FFFFFFFFFFFFFFFFFFFFFFFFFFFF8A
:10048000FFFFFFFFFFFFFFFFFFFFFFFFFFFFFFFF7C
:10049000FFFFFFFFFFFF0000000000000000000062
:1004A0000000FFFFFFFFFFFFFFFFFFFFFFFFFFFF5A
:1004B000FFFFFFFFFFFFFFFFFFFFFFFFFFFFFFFF4C
:1004C000FFFFFFFFFFFF0000000000000000000032
:1004D0000000FFFFFFFFFFFFFFFFFFFFFFFFFFFF2A
:1004E000FFFFFFFFFFFFFFFFFFFFFFFFFFFFFFFF1C
:1004F000FFFFFFFFFFFF0000000000001FFFF81FCD
:10050000FFF81FFFF8E0B6C7FBB6DFFB86C7FBB6F8
:10051000F7FBB6C7FFFFFFFE8C3FFEBDBFFE8DBFE2
:10052000FEEC3FFE8DBFFFFFFFFFFFFFE08883FB78
:10053000BBEFFB98EFFBBEEFFB88EF1FFFF81FFF41
:10054000F81FFFF8021F11051F11051F11021204E9
:10055000100011001100110217001200110011000B
:1005600011001900120311001102170012001100EE
:1005700011001300170012001100110011021F1FBB
:100580001100100211031C001000130011001C00C8
:100590001002110011001C00120011031C001002B7
:1005A000110011001F1F1F18041002100210041662
:1005B000001200120014001800120111021200189B
:1005C0000012001400120018001202100212001390
:1005D000021F11051F11051F11020000FFFF00007F
:1005E000000000000000000000000000000000000B
:1005F0000000000000000000021F11051F11051F70
:100600001102120410001100110011021700120053
:10061000110011001100190012031100110217003E
:100620001200110011001300170012001100110038
:1006300011021F1F1100100211031C0010001300F3
:1006400011001C001002110011001C001200110307
:100650001C001002110011001F1F1F1804100210AF
:1006600002100416001200120014001800120111EA
:1006700002120018001200140012001800120210DA
:1006800002120013021F11051F11051F11020000A5
:10069000FFFF00000000000000000000000000005C
:1006A0000000000000000000000000000001111127
:1006B000111111111111100000011111111111115D
:1006C000111110000001111111111111111110005F
:1006D0001110000010110110110001111111101161
:1006E0001011011011011111111110111000011040
:1006F000110001111111101110110110111101112E
:10070000111110111011011011000111111111110D
:1007100011111111111111111111111010001100ED
:1007200000111111111111101011110110111111DD
:1007300011111110100011011011111111111110CE
:1007400011101100001111111111111010001101DF
:10075000101111111111111111111111111111118A
:10076000111111111111111111111111111000009C
:1007700010001000100000111111101110111011B3
:10078000111011111111101110011000111011117F
:10079000111110111011111011101111111110114E
:1007A000100010001110111100011111111111117F
:1007B000111110000001111111111111111110006E
:1007C0000001111111111111111110000000FFFF92
:1007D0000000000000000000000000000000000019
:1007E00000000000000000000000000111111111C4
:1007F000111111111000000111111111111111111C
:10080000100000011111111111111111100011101E
:10081000000010110110110001111111101110111F
:10082000011011011111111110111000011011000E
:1008300001111111101110110110111101111111DB
:1008400010111011011011000111111111111111CC
:1008500011111111111111111110100011000011BD
:10086000111111111110101111011011111111118B
:10087000111010001101101111111111111011108E
:10088000110000111111111111101000110110119E
:100890001111111111111111111111111111111148
:1008A000111111111111111111111110000010006D
:1008B0001000100000111111101110111011111061
:1008C000111111111011100110001110111111113D
:1008D000101110111110111011111111101110001F
:1008E000100011101111000111111111111111112C
:1008F000100000011111111111111111100000014E
:10090000111111111111111110000000FFFF000051
:1009100000000000000000000000000000000000D7
:10092000000000000000000011241FBECFEFD0E146
:10093000DEBFCDBF1AE0A0E0B1E0E4E2FFE202C01A
:1009400005900D92AA32B107D9F71AE0AAE2BAE0EF
:1009500001C01D92AB32B107E1F70E94BE150C94A5
:1009600090170C94000090E0887F9070880F991F7A
:1009700082959295907F9827807F982770E06C7F72
:100980007070682B792B660F771F660F771F660FC5
:10099000771F46954695469550E0642B752BCB0105
:1009A0000895149888B91398139A149A089588B9D9
:1009B0001398139A089598B91398139A88B91398AD
:1009C000139A0895159886B1159A0895159896B1B9
:1009D000159A159886B1159A392F20E0280F311DE8
:1009E000C9010895181614F4119A0895882329F05E
:1009F00082B192E0892782B9089511980895CF9322
:100A0000DF93EC01A62FAC01372F332309F48DC0FF
:100A1000FA0120E1808188B91398139A818188B9FD
:100A20001398139A828188B91398139A838188B98D
:100A30001398139A848188B91398139A858188B979
:100A40001398139A868188B91398139A878188B965
:100A50001398139A808588B91398139A818588B959
:100A60001398139A828588B91398139A838588B945
:100A70001398139A848588B91398139A858588B931
:100A80001398139A868588B91398139A878588B91D
:100A90001398139A808988B91398139A818988B911
:100AA0001398139A828988B91398139A838988B9FD
:100AB0001398139A848988B91398139A858988B9E9
:100AC0001398139A868988B91398139A878988B9D5
:100AD0001398139A808D88B91398139A818D88B9C9
:100AE0001398139A828D88B91398139A838D88B9B5
:100AF0001398139A848D88B91398139A858D88B9A1
:100B00001398139A868D88B91398139A878D88B98C
:100B10001398139A2150B096222309F07BCF3150BD
:100B200040505E4F332309F073CF972F990F80E029
:100B3000662349F0FE01E80FF91F819188B91398E7
:100B4000139AA150D1F7DF91CF9108951F93B42F3D
:100B5000152FAB01149888B91398139A149AAB2FD8
:100B6000912F992309F48DC0FB0120E1818188B97F
:100B70001398139A808188B91398139A838188B93E
:100B80001398139A828188B91398139A858188B92A
:100B90001398139A848188B91398139A878188B916
:100BA0001398139A868188B91398139A818588B906
:100BB0001398139A808588B91398139A838588B9F6
:100BC0001398139A828588B91398139A858588B9E2
:100BD0001398139A848588B91398139A878588B9CE
:100BE0001398139A868588B91398139A818988B9BE
:100BF0001398139A808988B91398139A838988B9AE
:100C00001398139A828988B91398139A858988B999
:100C10001398139A848988B91398139A878988B985
:100C20001398139A868988B91398139A818D88B975
:100C30001398139A808D88B91398139A838D88B965
:100C40001398139A828D88B91398139A858D88B951
:100C50001398139A848D88B91398139A878D88B93D
:100C60001398139A868D88B91398139A2150B096C9
:100C7000222309F07BCF915060507E4F992309F0D9
:100C800073CF712F770F60E0BB2371F0FA01E60F8D
:100C9000F71F818188B91398139A808188B91398B6
:100CA000139A3296A150A9F71F910895942F149882
:100CB00088B91398139A149A68B9552329F180E1D9
:100CC0001398139A1398139A1398139A1398139AC4
:100CD0001398139A1398139A1398139A1398139AB4
:100CE0001398139A1398139A1398139A1398139AA4
:100CF0001398139A1398139A1398139A1398139A94
:100D00008150F1F65150D9F6442321F01398139AEB
:100D10009150E1F70895942F149888B91398139A75
:100D2000149A552309F467C080E178B91398139A8F
:100D300068B91398139A78B91398139A68B91398E5
:100D4000139A78B91398139A68B91398139A78B9C3
:100D50001398139A68B91398139A78B91398139A39
:100D600068B91398139A78B91398139A68B91398B5
:100D7000139A78B91398139A68B91398139A78B993
:100D80001398139A68B91398139A78B91398139A09
:100D900068B91398139A78B91398139A68B9139885
:100DA000139A78B91398139A68B91398139A78B963
:100DB0001398139A68B91398139A78B91398139AD9
:100DC00068B91398139A78B91398139A68B9139855
:100DD000139A78B91398139A68B91398139A78B933
:100DE0001398139A68B91398139A815009F09DCFFC
:100DF000515009F099CF442341F078B91398139AD0
:100E000068B91398139A9150C1F70895149888B946
:100E10001398139A149ACB01642F70E00E94FF0478
:100E20000895149888B91398139A149A18B817B893
:100E30001598159A442349F0FB01159886B1159A27
:100E400081938E2F861B8417C0F38FEF87B9089587
:100E5000982F149886E388B91398139A149A9130AE
:100E6000A1F0913038F488E488B91398139A9093DC
:100E70002A0A0895923081F09330C9F788EE88B934
:100E80001398139A90932A0A089588E288B91398C0
:100E9000139A90932A0A089588E888B91398139AA8
:100EA00090932A0A08951498EAE2E8B91398139ADD
:100EB000149A78B91398139A68B91398139A38B991
:100EC0001398139A28B91398139A14982BE228B9F7
:100ED0001398139A149A98B91398139A88B9139877
:100EE000139A58B91398139A48B91398139A0895F6
:100EF0006F927F928F929F92AF92BF92CF92DF922A
:100F0000EF92FF920F931F93A82E3A014B01B22E3E
:100F1000D32EBA01F40180528F3568F01F910F91E2
:100F2000FF90EF90DF90CF90BF90AF909F908F9009
:100F30007F906F9008958C2D90E0880F991F880FF7
:100F4000991F880F991F615070409B01280F391F0E
:100F50003197AF01480F591FC401B3010E945307D5
:100F60006A2D70E060527040660F771F660F771F22
:100F7000660F771F6E0D7F1D14988CE288B9139849
:100F8000139A149AA0E0B0E0FB01EA0FFB1F449112
:100F9000CC2019F150E030E820E0932F942380E03A
:100FA00009C0D8B81398139AB8B81398139A8F5FDA
:100FB0008C1558F49923A9F718B91398139A08B9FE
:100FC0001398139A8F5F8C15A8F32F5F283011F0B8
:100FD0003695E3CF5F5F5C15F0F21196A830B1054E
:100FE00099F69CCF2F923F924F925F926F927F9291
:100FF0008F929F92AF92BF92CF92DF92EF92FF9229
:101000000F931F93DF93CF93CDB7DEB727970FB61C
:10101000F894DEBF0FBECDBF3C01552E3A83298325
:101020001C830B8317014C2C842F4D838C2C99240B
:10103000880C991C880C991C880C991C952D9F83F1
:101040008E83262F372FC9015C01DD24D3949D2D7B
:101050009150F301E90FF11D8081882391F08A30CE
:1010600051F5A80CB91C8D81952D9C013F832E83D1
:10107000D3949D2D9150F301E90FF11D80818823B8
:1010800071F7892F27960FB6F894DEBF0FBECDBF3C
:10109000CF91DF911F910F91FF90EF90DF90CF9054
:1010A000BF90AF909F908F907F906F905F904F9088
:1010B0003F902F9008954E815F81B50129813A813B
:1010C0000B811C817101C42C0E9478078E819F8145
:1010D000880D991D9F838E83D394CBCF4F925F92BF
:1010E0006F927F928F929F92AF92BF92CF92EF9228
:1010F000FF920F931F93DF93CF93CDB7DEB7279760
:101100000FB6F894DEBF0FBECDBF3A014B012901E7
:101110005E010894A11CB11CB5014AE050E00E9498
:101120004B17C501B401A30192010E94F207279653
:101130000FB6F894DEBF0FBECDBFCF91DF911F91E8
:101140000F91FF90EF90CF90BF90AF909F908F90B6
:101150007F906F905F904F9008952F923F924F92A3
:101160005F926F927F928F929F92AF92BF92CF9237
:10117000DF92EF92FF920F931F93DF93CF93CDB740
:10118000DEB727970FB6F894DEBF0FBECDBF4C0178
:10119000D52E3A83298318012701CB82842F4C83D3
:1011A000462F6C2C7724660C771C660C771C660C1B
:1011B000771C952F9F838E83242F372FC9015C01C5
:1011C000F4010894811C911C94919A3041F4A60C6E
:1011D000B71C8C819D2D9C013F832E83F1CF892FDD
:1011E0004E815F81B50129813A8181017201CB80F5
:1011F0009D830E9478079D81992339F08E819F817C
:10120000860D971D9F838E83DBCF80E027960FB6D8
:10121000F894DEBF0FBECDBFCF91DF911F910F912C
:10122000FF90EF90DF90CF90BF90AF909F908F9006
:101230007F906F905F904F903F902F9008953F92D6
:101240004F925F926F927F928F929F92AF92BF92D6
:10125000CF92DF92EF92FF920F931F93CF93DF9382
:101260004901380127013C2C5A01EB01982F9F704E
:1012700082958F709A3048F1E7E3DE2ED90E8A30DE
:1012800048F5805DA501BE01940183017201C32C64
:101290000E947807A501485F5F4FBE018D2D940124
:1012A0000E94780782E0DF91CF911F910F91FF900C
:1012B000EF90DF90CF90BF90AF909F908F907F90F6
:1012C0006F905F904F903F90089570E3D72ED90EA6
:1012D0008A30B8F2895CD6CF2F923F924F925F92BC
:1012E0006F927F928F929F92AF92BF92CF92DF9236
:1012F000EF92FF920F931F93DF93CF93CDB7DEB79B
:101300002E970FB6F894DEBF0FBECDBF3C01D42E92
:10131000B52E6D877E87190119870887FB86EA86B7
:10132000CC868A2CAA2009F46FC04D2C5B2CC301FB
:10133000BE016F5F7F4F4AE050E00E944B178981EA
:10134000882309F466C099249394E1E0F0E0EC0F5F
:10135000FD1FE90DF11D80818823B1F7981408F075
:1013600056C04C85642E7724660C771C660C771C5F
:10137000660C771CD92C520180E2A5016D857E8513
:10138000910108851985EA84FB84CC840E94780742
:10139000D394A60CB71CD81478F39301240D351DF3
:1013A0009094980C892D90E0AC01469DC001479D1A
:1013B000900D569D900D1124280F391FCE010196D6
:1013C000A9016D857E85910108851985EA84FB84D4
:1013D000CC840E94F2072E960FB6F894DEBF0FBEA3
:1013E000CDBFCF91DF911F910F91FF90EF90DF90D4
:1013F000CF90BF90AF909F908F907F906F905F90B5
:101400004F903F902F9008950E946E088ECF9201CA
:10141000D5CF9924A3CFEF92FF920F931F938B0107
:101420009C017A01A90198010E94530714988CE24B
:1014300088B91398139A149AF8B81398139AE8B8BD
:101440001398139A1F910F91FF90EF9008954F9268
:101450005F926F927F928F929F92AF92BF92CF9244
:10146000DF92EF92FF920F931F93CF93DF93690167
:101470007A0158019B01AC018601E7014B018C0CFC
:101480009D1C7C01EC0EFD1EB401C7012901401A10
:10149000510A3A016C1A7D0AA5010E940B0ACD2857
:1014A000E9F42097A9F4012B11F0CD2BE9F4DF9199
:1014B000CF911F910F91FF90EF90DF90CF90BF9051
:1014C000AF909F908F907F906F905F904F90089516
:1014D000B401C301A5010E940B0AE5CFB201C70107
:1014E000A5010E940B0ADDCFB201C301A5010E9434
:1014F0000B0ADDCF4F925F926F927F928F929F92F5
:10150000AF92BF92CF92DF92EF92FF920F931F9311
:10151000CF93DF932B013C0149015A010E94270A16
:10152000A814B90431F09501A401C301B2010E94CD
:10153000270ADF91CF911F910F91FF90EF90DF90DD
:10154000CF90BF90AF909F908F907F906F905F9063
:101550004F9008952F923F924F925F926F927F9299
:101560008F929F92AF92BF92CF92DF92EF92FF92B3
:101570000F931F93CF93DF932B013C011901442359
:10158000C9F1842F90E0CC27DD27C81BD90B4C0173
:10159000AA24BB2401C05C0175016401C301B2012E
:1015A000A701960181010E947A0AC5010196C80F20
:1015B000D91FCA0DDB1DD7FD07C0C819D90908946A
:1015C00081089108C819D9098816990620F7DF9172
:1015D000CF911F910F91FF90EF90DF90CF90BF9030
:1015E000AF909F908F907F906F905F904F903F90C3
:1015F0002F900895A9010E940B0AE9CFAF92BF92E4
:10160000CF92DF92EF92FF920F931F93CF93DF93CE
:101610005801DC01FA0126173707B0F569018B0183
:10162000EA17FB07B0F57F01ED01B601C70198018C
:10163000AE010E9453072196CE19DF09BE0180E05A
:1016400090E00F5F1F4F0C191D09980140E050E01A
:101650000E942C179B01AC01203080E0380781E00C
:10166000480780E05807C0F48CE2B501A9010E9448
:101670008B06DF91CF911F910F91FF90EF90DF903C
:10168000CF90BF90AF9008956B018901EA17FB07D7
:1016900050F27D01EF01C9CFA9014F5F5F4F8CE28E
:1016A000B5010E948B068CE3B5014FEF5FEF0E94FE
:1016B0008B06DFCFCF93DF93EC0180912A0A80FD68
:1016C00019C060E070E080E090E02FEE30E04FE382
:1016D00051E00E9453078CE2BE0140E050E80E94B6
:1016E0008B068CE3BE0140E05CEA0E948B06DF9132
:1016F000CF91089560E070E080E090E02FE331E06A
:101700004FEE50E00E945307E6CFDF93CF93CDB763
:10171000DEB76E970FB6F894DEBF0FBECDBF85B7AC
:10172000806885BF85B7806885BF8FE781B98FEFF7
:1017300087B988E382B980E89BEB0197F1F7129AA9
:1017400020E035E04CE251E0CA010197F1F7215069
:101750003040D1F7149888E288B91398139A149AF4
:10176000149881E188B91398139A149A14988BEC01
:1017700088B91398139A149A91E098B91398139A08
:10178000149880EC88B91398139A149A26E228B911
:101790001398139A88E088B91398139A149881ECD7
:1017A00088B91398139A149A80E188B91398139AF8
:1017B000149885EC88B91398139A149A85E388B91C
:1017C0001398139A8EE388B91398139A149886E3A2
:1017D00088B91398139A149A88E488B91398139ABD
:1017E000149880EB88B91398139A149A8AE488B9EC
:1017F0001398139A149881EB88B91398139A149A32
:1018000018B81398139A8BE188B91398139A1498FF
:1018100086EB88B91398139A149A8AE088B91398BA
:10182000139A82E888B91398139A87E288B91398B3
:10183000139A18B81398139A149887EC88B91398C8
:10184000139A149A85EB88B91398139A149886EF13
:1018500088B91398139A149A98B91398139A18B8C8
:101860001398139A18B81398139A149882EF88B99A
:101870001398139A149A18B81398139A149828B9AD
:101880001398139A149A98B91398139A14988AE390
:1018900088B91398139A149A85E588B91398139AFE
:1018A000BE016F5F7F4FDB01EBE1FAE08FE001905B
:1018B0000D928150E1F780EE4FE00E940607BE01D5
:1018C000605F7F4FDB01ECE0FAE08FE001900D926A
:1018D0008150E1F781EE4FE00E940607149884E3FF
:1018E00088B91398139A149A149884EB88B91398AA
:1018F000139A149A18B81398139A149887EB88B906
:101900001398139A149A87E088B91398139A80E071
:1019100090E00E945A0B149889E288B91398139AA0
:10192000149A2CE231E04CE251E0CA010197F1F740
:1019300021503040D1F781E00E94F2046E960FB63C
:10194000F894DEBF0FBECDBFCF91DF9108958F9287
:101950009F92AF92BF92CF92DF92EF92FF920F933E
:101960001F93CF93DF935C01CB01BA01FC2C48019C
:101970008901F818E21ACF2CDD249601260F371FB3
:10198000CE2DD0E0AE01480F591F0E945307F6013B
:101990003196D5014D915C911197842F90E0E81715
:1019A000F9070CF03DC0D50114962D913C91159787
:1019B00014988CE288B91398139A149AE39409F452
:1019C00049C0409FB001419F700D509F700D112480
:1019D000680D791D660F771F620F731F96012095A2
:1019E0003095240F351F220F331FAF01440F551FB1
:1019F000BFEFFB1681F0FB01640F751F818188B971
:101A00001398139A808188B91398139A3296E6171F
:101A1000F707A1F7BF01EA94E9F0620F731FE8CF5F
:101A2000000F111F0E9FC0010F9F900D1E9F900D64
:101A3000112414966D917C911597680F791F21964A
:101A4000CE9FA001CF9F500DDE9F500D11248CE240
:101A50000E94A605DF91CF911F910F91FF90EF900B
:101A6000DF90CF90BF90AF909F908F9008952F926E
:101A70003F924F925F926F927F929F92AF92BF92EE
:101A8000CF92DF92EF92FF920F931F93CF93DF934A
:101A9000EC012A013B01922ED501F60117015801F4
:101AA00081E0981609F47AC00A2F0E191C2D1A1914
:101AB0008881C82ECC0C202F30E02F5F3F4F79015A
:101AC000EE0CFF1C492D50E0D3011197812F90E0BF
:101AD0000196849FF001859FF00D949FF00D1124D5
:101AE000B20161507040429FC001439F900D529FD0
:101AF000900D11249B01280F391FAD014E0F5F1F60
:101B0000C301B2010E9453076C817D812881398114
:101B100014988CE288B91398139A149A1F3F09F409
:101B200044C02A9DA0012B9D500D3A9D500D1124BB
:101B3000420D531D440F551F460F571FB92DB1506D
:101B40008E2D90E09701CC27DD27C81BD90BEC2CFC
:101B5000FF249920E9F0AB2F0F3FA1F0FA01BA0161
:101B6000620F731F51814081992D58B91398139AB0
:101B700048B91398139A9150C1F73296E617F707B0
:101B800089F7AF014C0F5D1FAA2311F0A150E4CFDC
:101B9000112359F04E0D5F1D1150DBCFCE0198017E
:101BA00087016D017F010E94A70CDF91CF911F91EA
:101BB0000F91FF90EF90DF90CF90BF90AF909F90EC
:101BC0007F906F905F904F903F902F90089580E0AE
:101BD0000E94280760E070E080E090E02FE030E0B5
:101BE0004FE750E00E9453078CE260E070E040E075
:101BF00058E00E94A60560E270E080E090E020EAF4
:101C000030E04FEF50E00E94530714988CE288B9FF
:101C10001398139A149A20E030E0F901EE0FFF1F99
:101C200085919591A591B49198B91398139A88B913
:101C30001398139A2F5F3F4F37FFEFCF08952F92DE
:101C40003F924F925F926F927F928F929F92AF924C
:101C5000BF92CF92DF92EF92FF920F931F93DF9389
:101C6000CF93CDB7DEB7A6970FB6F894DEBF0FBE01
:101C7000CDBF382FD92E7A018B01522EDA01B8014F
:101C800044244394422283E08217E8F092E029172B
:101C900008F4C0C0E32FFD2D808191819AA389A310
:101CA00022803380C480D58097819EA386818DA3B6
:101CB00091859CA380858BA366247724882499240E
:101CC000AA24BB2416C0E7E0E21708F48CC0832FD7
:101CD0009C014901F9010190F081E02DFAA3E9A3EB
:101CE000F90122803380C480D58066247724AA2419
:101CF000BB24119729A13AA12A0F3B1F11966150CD
:101D00007040AB01420D531D6F5F7F4F7D018B0112
:101D1000C801B7010E94530714988CE288B9139840
:101D2000139A149AF5E0F51508F4A0C084E058164B
:101D300008F4F8C0F4012681378189A19AA1289E70
:101D4000A001299E500D389E500D112441155105BA
:101D500089F1442009F472C0F60184914150504049
:101D6000E82FE295EF708F7009F472C0682F70E071
:101D70004617570708F0C4C0F0E0EE0FFF1FE20F50
:101D8000F31F6081E18180E090E050E04F5F5F4FA2
:101D9000E8B91398139A68B91398139A019684179F
:101DA0009507B1F740E050E00894C11CD11C4115E3
:101DB000510579F6A6960FB6F894DEBF0FBECDBFDB
:101DC000CF91DF911F910F91FF90EF90DF90CF9017
:101DD000BF90AF909F908F907F906F905F904F904B
:101DE0003F902F900895FBE0F21708F465CF832F02
:101DF0009C015901F9010190F081E02DFAA3E9A3BA
:101E0000F90122803380C480D58066247724882419
:101E100099246FCF832F9D2D9C013901F9010190E9
:101E2000F081E02DFAA3E9A3F90122803380C48078
:101E3000D58088249924AA24BB245BCFF601808115
:101E400041505040E82FE295EF708F7009F08ECF2F
:101E5000F0E0EE0FFF1FE20FF31F9081818188B940
:101E60001398139A98B91398139A9ECFE9E0E51541
:101E700008F494C0F8E05F1608F4EDC0F501A681FF
:101E8000B78189A19AA1289E7001299EF00C389EE5
:101E9000F00C11248701169507950115110509F419
:101EA000AEC1B601A80127C0FB0124916F5F7F4F2F
:101EB000E22FE295EF70F0E0EE0FFF1FEA0FFB1F3D
:101EC0009081818188B91398139A98B91398139ABD
:101ED0002F70E22FF0E0EE0FFF1FEA0FFB1F908143
:101EE000818188B91398139A98B91398139A41501D
:101EF000504009F482C14420B9F6FB012081D6CFBD
:101F0000F0E0EE0FFF1FE20FF31F9081E181E8B9CF
:101F10001398139A98B91398139A8150C0F7461BD7
:101F2000570B42CF91E0591609F4ECC0951508F013
:101F30003FC1442009F475C1F601449189A19AA1D9
:101F4000289E9001299E300D389E300D112490E876
:101F500015C0EEA1E8B91398139AFDA1F8B913982A
:101F6000139A969549F4442009F41BC10894C11CA6
:101F7000D11CF601449190E82150304021153105E3
:101F800009F418CF892F842321F78CA188B91398DD
:101F9000139AEBA1E8B91398139AE3CF8BE0851558
:101FA00008F408CFF501468157818E010F5F1F4F5E
:101FB000D801BE016F5D7F4FFA01849131964E5F6B
:101FC0005F4FE491382F20E08E2F90E0822B932BEF
:101FD0008D939D93A617B70779F789A19AA1289E9B
:101FE0007001299EF00C389EF00C1124D701B69593
:101FF000A795109709F4EEC0B601AD0127C0FB010B
:1020000024916F5F7F4FE22FE295EF70F0E0EE0FCB
:10201000FF1FE00FF11F9081818188B91398139AF7
:1020200098B91398139A2F70E22FF0E0EE0FFF1F6C
:10203000E00FF11F9081818188B91398139A98B9A4
:102040001398139A4150504009F4C2C04420B9F685
:10205000FB012081D6CFF401468157818E010F5FAD
:102060001F4FD801BE016F5D7F4FFA0184913196F9
:102070004E5F5F4FE491382F20E08E2F90E0822B4F
:10208000932B8D939D93A617B70779F789A19AA1F2
:10209000289E9001299E300D389E300D1124211567
:1020A000310509F487CE442009F451C0F60184912A
:1020B00021503040E82FE295EF708F7009F451C045
:1020C000482F50E02417350708F059C0F0E0EE0F14
:1020D000FF1FE00FF11F4081E18180E090E030E0E0
:1020E0002F5F3F4FE8B91398139A48B91398139A82
:1020F000019682179307B1F720E030E00894C11CE5
:10210000D11CCDCF89A19AA1289E9001299E300D86
:10211000389E300D11242115310509F44BCE089459
:10212000C11CD11CF60184910894C108D108F601A4
:10213000949188B91398139A98B91398139A82E0D6
:1021400090E0C80ED91E2150304049F733CEF60139
:10215000808121503040E82FE295EF708F7009F0B8
:10216000AFCFF0E0EE0FFF1FE00FF11F90818181F4
:1021700088B91398139A98B91398139ABFCFF0E0BF
:10218000EE0FFF1FE00FF11F9081E181E8B9139876
:10219000139A98B91398139A8150C0F7241B350BE2
:1021A000ADCF0894C11CD11CF601408190E8E4CE6B
:1021B000F3016481758189A19AA1289EA001299EBD
:1021C000500D389E500D11248CE20E94A605F2CDD0
:1021D000CA0EDB1EE0FEEECD442059F5F6018081EB
:1021E00082958F7090E0880F991F080F191FF801D2
:1021F000808191810E94DB04DDCDC00ED11EE0FE06
:10220000D9CD442089F4F601808182958F7090E0C9
:10221000880F991FA80FB91F8D919C910E94DB0414
:10222000C9CDF60140818ACEF601849182958F70E6
:10223000EECFF601849182958F70D4CF2F923F928A
:102240004F925F926F927F928F929F92AF92BF92C6
:10225000CF92DF92EF92FF920F931F93DF93CF9372
:10226000CDB7DEB7A8970FB6F894DEBF0FBECDBFCF
:10227000382F6A017B01922E013049F1002349F188
:10228000822F81708FA3A3E0A217E0F1B2E02B1799
:1022900008F4DCC0832F9C013901D9012D913C91B8
:1022A00011971296AD90BC90139714962C9014979A
:1022B0001596BC91B8A7F30137804680518480847D
:1022C0001EA21DA21CA21BA21AA219A22BC00E9410
:1022D0001F0EA8960FB6F894DEBF0FBECDBFCF91EC
:1022E000DF911F910F91FF90EF90DF90CF90BF9003
:1022F000AF909F908F907F906F905F904F903F90A6
:102300002F900895F7E0F21708F08DC08BE0821748
:1023100008F0F4C21EA21DA2662477241CA21BA2F0
:102320001AA219A210E0D7011197A09EF001A19E58
:10233000F00DB09EF00D1124B60161507040209F49
:10234000C001219F900D309F900D11249B01280FFB
:10235000391FAD014E0F5F1FC701B6010E94530721
:1023600014988CE288B91398139A149AE5E0E91549
:1023700008F4CEC0F4E09F1608F4AFC1ABA1BCA135
:1023800016966D907C90179755245A94882407C010
:102390000894A108B1082A2EB8A7592C872EA11499
:1023A000B10409F496CF822D98A5FC01DF01652DBB
:1023B000782D680199249A94C114D10449F3EBA1B2
:1023C000FCA1408151814115510509F489C2653153
:1023D00060F0FFA1FF2309F499C0FD0184911196DB
:1023E000782F72957F70682F6F707A010894E108DA
:1023F000F108662309F043C00115110589F0E72FA4
:10240000F0E0EE0FFF1FE60DF71D30812181C801BE
:1024100028B91398139A38B91398139A0197C1F7EA
:10242000A7016FEFD0CF832F9C013CA32BA3F90111
:1024300020813181A280B3802480F581F8A71EA27B
:102440001DA2662477241AA219A26CCF832F9C01A7
:102450003EA32DA3D9012D913C9111971296AD90D9
:10246000BC90139714962C9014971596BC91B8A70E
:10247000662477241CA21BA21AA219A253CF262FCE
:1024800030E0E216F30600F5409FC001419F900D39
:10249000509F900D1124009781F0E72FF0E0EE0F90
:1024A000FF1FE60DF71D3081218128B91398139A7B
:1024B00038B91398139A0197C1F79E2C9094960EF1
:1024C00040E050E06FEF7FCF2F5F3F4F209FC00174
:1024D000219F900D309F900D112421503040009786
:1024E00081F0E72FF0E0EE0FFF1FE60DF71D5081A2
:1024F000418148B91398139A58B91398139A0197C0
:10250000C1F7A701421B530B6FEF5DCF8C9167CFD3
:10251000A9E0A91508F464C0B8E09B1608F407C246
:10252000A9A1BAA11696ED90FC901797992406C020
:102530000894A108B1082A2EB8A7972EA114B104B7
:1025400009F4C7CE822D98A5FC01DF01792D680121
:10255000C114D10469F3E9A1FAA140815181992004
:1025600009F0C8C270E04115510509F465C1FFA129
:10257000FF23A1F1FD0164910115110529F1E62F59
:10258000E295EF70F0E0EE0FFF1FEE0DFF1D3081C2
:102590002181C80128B91398139A38B91398139A4E
:1025A0000197C1F76F70E62FF0E0EE0FFF1FEE0D01
:1025B000FF1D2081E181C801E8B91398139A28B959
:1025C0001398139A0197C1F74150504019F471E0E4
:1025D0001196C9CF415050401196C5CF6C91CCCFC8
:1025E000EBE0E91508F475CEA9A1BAA116964D91B4
:1025F0005C9117974E010894811C911CD401BE0177
:102600006F5D7F4FFA01849131964E5F5F4FE49189
:10261000382F20E08E2F90E0822B932B8D939D936B
:10262000A617B70779F7DD2406C00894A108B108FA
:102630002A2EB8A7D72EA114B10409F44ACE822DB0
:1026400098A5FC01DF017D2D7801E114F10469F307
:10265000E9A1FAA140815181DD2009F02CC270E08E
:102660004115510509F412C1FFA1FF23A1F1FD019C
:1026700064910115110529F1E62FE295EF70F0E064
:10268000EE0FFF1FE80DF91D30812181C80128B927
:102690001398139A38B91398139A0197C1F76F706A
:1026A000E62FF0E0EE0FFF1FE80DF91D2081E1811C
:1026B000C801E8B91398139A28B91398139A019787
:1026C000C1F74150504019F471E01196C9CF415003
:1026D00050401196C5CF6C91CCCF81E0981609F48B
:1026E00046C0891508F079C020E8F22E06C008948B
:1026F000A108B1082E2EF8A7F32EA114B10409F4F5
:10270000E8CD822D98A5FC013F2DB801611571051A
:1027100071F3D3014D915C91BFA1BB2309F009C2B4
:10272000A0814115510509F412C2C801232F2A23A3
:10273000009761F0222309F4FEC138B81398139A68
:1027400048B81398139A01970097A1F7369539F472
:102750008FA1882309F4F7C13196A49130E8415044
:102760005040DFCF0894A108B108222E38A7A11449
:10277000B10409F4AECD822D98A59C01D801109723
:1027800089F3EDA1FEA1E080F180E114F104D1F024
:10279000F901B7010115110569F03196C80154918D
:1027A0003197449158B91398139A48B91398139ACA
:1027B0000197C1F732966150704061F7EE0CFF1C33
:1027C0002E0D3F1D1197D9F2822D98A59C01D7CFD0
:1027D0000894A108B108222E38A7A114B10409F465
:1027E00078CD822D98A59C01D801109789F3EDA191
:1027F000FEA1E080F180E114F104C1F0F901B7011C
:102800000115110559F051814081C80158B913983B
:10281000139A48B91398139A0197C1F732966150E9
:10282000704071F7EE0CFF1C2E0D3F1D1197E9F261
:10283000822D98A59C01D9CF7723E1F0FFA1FF233A
:1028400009F498C1FD01849182958F7001151105DD
:1028500089F0E82FF0E0EE0FFF1FEE0DFF1D208145
:10286000E181C801E8B91398139A28B91398139A0B
:102870000197C1F70894C108D108C114D10409F423
:1028800067CE822D98A5FC01DF0162CE7723E1F0AF
:10289000FFA1FF2309F467C1FD01849182958F7028
:1028A0000115110589F0E82FF0E0EE0FFF1FE80D8C
:1028B000F91D2081E181C801E8B91398139A28B95C
:1028C0001398139A0197C1F70894E108F108E114ED
:1028D000F10409F4BACE822D98A5FC01DF01B5CE32
:1028E0000894C108D108C114D10409F465CD822D22
:1028F00098A5FC01DF01652D782D5ECD832F9C010D
:102900003AA329A3D9012D913C9111971296AD902C
:10291000BC90139714962C9014971596BC91B8A759
:102920001EA21DA2662477241CA21BA2FBCCABA175
:10293000BCA116964D915C9117974E010894811C8D
:10294000911CD401BE016F5D7F4FFA0184913196D5
:102950004E5F5F4FE491382F20E08E2F90E0822B66
:10296000932B8D939D93A617B70779F755245A9407
:10297000662407C00894A108B1082A2EB8A7572CCE
:10298000672EA114B10409F4A4CC822D98A5FC01F2
:10299000DF01652D762D680177247A94C114D10466
:1029A00049F3EBA1FCA1408151814115510509F486
:1029B00074C0653160F0FFA1FF2309F46CC0FD0114
:1029C00084911196782F72957F70682F6F707A01BD
:1029D0000894E108F1086623B9F40115110589F09E
:1029E000E72FF0E0EE0FFF1FE80DF91D3081218188
:1029F000C80128B91398139A38B91398139A0197F4
:102A0000C1F7A7016FEFD1CF262F30E0E216F30612
:102A100000F5409FC001419F900D509F900D1124E3
:102A2000009781F0E72FF0E0EE0FFF1FE80DF91D92
:102A30003081218128B91398139A38B91398139AC1
:102A40000197C1F77E2C7094760E40E050E06FEF56
:102A5000ACCF2F5F3F4F209FC001219F900D309F33
:102A6000900D112421503040009781F0E72FF0E0C5
:102A7000EE0FFF1FE80DF91D5081418148B91398F1
:102A8000139A58B91398139A0197C1F7A701421BDB
:102A9000530B6FEF8ACF8C9194CF0894C108D10863
:102AA000C114D10409F47ACF822D98A5FC01DF016D
:102AB000652D762D73CFFFA1FF2309F451C0FD01D1
:102AC00084918F700115110589F0E82FF0E0EE0F69
:102AD000FF1FE80DF91D2081E181C801E8B91398B5
:102AE000139A28B91398139A0197C1F7415050408F
:102AF0001196B5CDFFA1FF2309F439C0FD018491E2
:102B00008F700115110589F0E82FF0E0EE0FFF1F1F
:102B1000EE0DFF1D2081E181C801E8B91398139AD9
:102B200028B91398139A0197C1F741505040119654
:102B300019CDA491F6CD58B81398139A88B8139864
:102B4000139A019701CE3196A08130E808CE6150EA
:102B5000704009F4DBCD822D98A5FC013F2DD6CD28
:102B60008C918F70AFCF8C9182958F7099CE8C9114
:102B70008F70C7CF8C9182958F7068CEEF92FF9245
:102B80000F93279A80E00E94850B81E00E9428071E
:102B90008FEF97E00E945A0B2F9A80E895E040E073
:102BA00050E060E070E020E003E00E941E112F98EA
:102BB00040E3E42E45E7F42EC7010197F1F72F9A81
:102BC00086E895E042E550E060E070E021E00E9498
:102BD0001E112F98C7010197F1F72F9A84ED95E008
:102BE00044EA50E060E070E022E00E941E112F985D
:102BF000C7010197F1F72F9A8EED95E048EF50E06D
:102C000060E070E023E00E941E112F98C701019739
:102C1000F1F72F9A8CE996E040E050E068EA70E026
:102C200024E00E941E112F98C7010197F1F72F9AF7
:102C300082EC96E042E550E068EA70E025E00E9410
:102C40001E112F98C7010197F1F72F9A80E697E0A0
:102C500044EA50E068EA70E026E00E941E112F98D6
:102C6000C7010197F1F72F9A88E697E048EF50E007
:102C700068EA70E027E00E941E112F9820E137E2F9
:102C80004CE251E0CA010197F1F721503040D1F7F1
:102C90002F9A8EEA98E040E050E06AE070E028E089
:102CA00003E00E941E112F9830E3E32E35E7F32E48
:102CB000C7010197F1F72F9A84ED98E042E550E0C3
:102CC0006AE070E029E00E941E112F98C701019769
:102CD000F1F72F9A8CEF99E044EA50E06AE070E057
:102CE0002AE00E941E112F98C7010197F1F72F9A31
:102CF00084E09AE048EF50E06AE070E02BE00E9448
:102D00001E112F9880E69AEE0197F1F72F9A80E82E
:102D100095E040E050E06CE670E020E001E00E94C9
:102D20001E112F98C7010197F1F72F9A86E895E0B9
:102D30004AE150E06CE670E021E00E941E112F98FD
:102D4000C7010197F1F72F9A84ED95E044E350E035
:102D50006CE670E022E00E941E112F98C7010197D7
:102D6000F1F72F9A8EED95E04EE450E06CE670E0BE
:102D700023E00E941E112F98C7010197F1F72F9AA7
:102D80008CE996E048E650E06CE670E024E00E94B2
:102D90001E112F98C7010197F1F72F9A82EC96E048
:102DA00042E850E06CE670E025E00E941E112F988A
:102DB000C7010197F1F72F9A80E697E04CE950E0C0
:102DC0006CE670E026E00E941E11C7010197F1F742
:102DD0002F9A88E697E046EB50E06CE670E027E03B
:102DE0000E941E112F98C7010197F1F72F9A8EEAC2
:102DF00098E040ED50E06CE670E028E00E941E1183
:102E00002F98C7010197F1F72F9A84ED98E04AEEC9
:102E100050E06CE670E029E00E941E112F98C70177
:102E20000197F1F72F9A8CEF99E044E051E06CE6BE
:102E300070E02AE00E941E112F98C7010197F1F758
:102E40002F9A84E09AE04EE151E06CE670E02BE0CE
:102E50000E941E112F98FFCF629FD001739FF00137
:102E6000829FE00DF11D649FE00DF11D929FF00D1A
:102E7000839FF00D749FF00D659FF00D9927729F51
:102E8000B00DE11DF91F639FB00DE11DF91FBD01DC
:102E9000CF0111240895FB019F01E8944230C4F052
:102EA0004532B4F44A3029F497FB1EF4909581958D
:102EB0009F4F642F77270E947C17805D8A330CF028
:102EC000895D8193CB010097A1F716F45DE25193E0
:102ED0001082C9010C946C17DC01FC01672F719101
:102EE0007723E1F7329704C07C916D9370836291F0
:102EF000AE17BF07C8F30895AA1BBB1B51E107C05B
:102F0000AA1FBB1FA617B70710F0A61BB70B881F79
:102F1000991F5A95A9F780959095BC01CD01089508
:042F2000F894FFCF53
:102F2400000000000000FFFFFFFFFFFFFFFFFFFFA7
:102F3400FFFFFFFFFFFFFFFFFFFFFFFFFFFFFFFF9D
:102F4400FFFFFFFFFFFFFFFFFFFF00000000000087
:102F5400000000000000FFFFFFFFFFFFFFFFFFFF77
:102F6400FFFFFFFFFFFFFFFFFFFFFFFFFFFFFFFF6D
:102F7400FFFFFFFFFFFFFFFFFFFF00000000000057
:102F8400000000000000FFFFFFFFFFFFFFFFFFFF47
:102F9400FFFFFFFFFFFFFFFFFFFFFFFFFFFFFFFF3D
:102FA400FFFFFFFFFFFFFFFFFFFF00000000000027
:102FB400FFFFFFFFFFFF0000000000000000000013
:102FC400FFFF0000FFFFFFFF0000FFFFFFFF000007
:102FD400FFFFFFFF000000000000FFFFFFFFFFFFF7
:102FE400FFFFFFFFFFFFFFFFFFFF0000FFFFFFFFEB
:102FF400FFFF0000FFFFFFFF0000FFFFFFFF0000D7
:10300400FFFFFFFF0000FFFFFFFFFFFFFFFFFFFFCA
:10301400FFFFFFFFFFFFFFFFFFFF0000FFFFFFFFBA
:10302400FFFF0000000000000000FFFFFFFF0000A2
:10303400FFFFFFFF000000000000FFFFFFFFFFFF96
:10304400FFFFFFFFFFFFFFFFFFFF0000FFFFFFFF8A
:10305400FFFF0000FFFFFFFF0000FFFFFFFF000076
:10306400FFFFFFFFFFFFFFFF0000FFFFFFFFFFFF6A
:10307400FFFFFFFFFFFFFFFFFFFF0000FFFFFFFF5A
:10308400FFFF0000FFFFFFFF0000FFFFFFFF000046
:10309400FFFFFFFF000000000000FFFFFFFFFFFF36
:1030A400FFFFFFFFFFFFFFFFFFFFFFFFFFFFFFFF2C
:1030B400FFFFFFFFFFFFFFFFFFFFFFFFFFFFFFFF1C
:1030C400FFFFFFFFFFFFFFFFFFFFFFFFFFFFFFFF0C
:1030D400FFFFFFFFFFFFFFFFFFFFFFFFFFFF0000FA
:1030E400FFFF000000000000FFFFFFFF00000000E2
:1030F40000000000FFFFFFFFFFFFFFFFFFFFFFFFD8
:10310400FFFFFFFFFFFFFFFFFFFFFFFFFFFF0000C9
:10311400FFFF0000FFFFFFFFFFFFFFFF0000FFFFB7
:10312400FFFF0000FFFFFFFFFFFFFFFFFFFFFFFFA9
:10313400FFFFFFFFFFFFFFFFFFFFFFFFFFFF000099
:10314400FFFF000000000000FFFFFFFF0000FFFF83
:10315400FFFF0000FFFFFFFFFFFFFFFFFFFFFFFF79
:10316400FFFFFFFFFFFFFFFFFFFFFFFFFFFF000069
:10317400FFFFFFFFFFFF0000FFFFFFFF0000000055
:1031840000000000FFFFFFFFFFFFFFFFFFFFFFFF47
:10319400FFFFFFFFFFFFFFFFFFFFFFFFFFFF000039
:1031A400FFFF000000000000FFFFFFFF0000FFFF23
:1031B400FFFF0000FFFFFFFFFFFFFFFFFFFFFFFF19
:1031C400FFFFFFFFFFFFFFFFFFFFFFFFFFFFFFFF0B
:1031D400FFFFFFFFFFFFFFFFFFFFFFFFFFFFFFFFFB
:1031E400FFFFFFFFFFFFFFFFFFFFFFFFFFFFFFFFEB
:1031F400FFFFFFFFFFFFFFFFFFFFFFFFFFFFFFFFDB
:10320400FFFFFFFFFFFFFFFFFFFFFFFFFFFFFFFFCA
:10321400FFFFFFFFFFFFFFFFFFFFFFFFFFFFFFFFBA
:10322400FFFFFFFFFFFF00000000000000000000A0
:10323400FFFF000000000000FFFF0000000000008E
:10324400FFFF00000000000000000000FFFFFFFF80
:10325400FFFFFFFFFFFFFFFFFFFF0000FFFFFFFF78
:10326400FFFF0000FFFFFFFFFFFF0000FFFFFFFF66
:10327400FFFFFFFFFFFF0000FFFFFFFFFFFFFFFF58
:10328400FFFFFFFFFFFFFFFFFFFF0000FFFFFFFF48
:10329400FFFF00000000FFFFFFFF00000000000030
:1032A400FFFFFFFFFFFF0000FFFFFFFFFFFFFFFF28
:1032B400FFFFFFFFFFFFFFFFFFFF0000FFFFFFFF18
:1032C400FFFF0000FFFFFFFFFFFFFFFFFFFF000006
:1032D400FFFFFFFFFFFF0000FFFFFFFFFFFFFFFFF8
:1032E400FFFFFFFFFFFFFFFFFFFF0000FFFFFFFFE8
:1032F400FFFF000000000000FFFF000000000000CE
:10330400FFFFFFFFFFFF0000FFFFFFFFFFFFFFFFC7
:10331400000000000000FFFFFFFFFFFFFFFFFFFFB3
:10332400FFFFFFFFFFFFFFFFFFFFFFFFFFFFFFFFA9
:10333400FFFFFFFFFFFFFFFFFFFF00000000000093
:10334400000000000000FFFFFFFFFFFFFFFFFFFF83
:10335400FFFFFFFFFFFFFFFFFFFFFFFFFFFFFFFF79
:10336400FFFFFFFFFFFFFFFFFFFF00000000000063
:10337400000000000000FFFFFFFFFFFFFFFFFFFF53
:10338400FFFFFFFFFFFFFFFFFFFFFFFFFFFFFFFF49
:10339400FFFFFFFFFFFFFFFFFFFF00000000000033
:1033A400180018000001180018007C001FFFF81F07
:1033B400FFF81FFFF8E0B6C7FBB6DFFB86C7FBB616
:1033C400F7FBB6C7FFFFFFFE8C3FFEBDBFFE8DBF00
:1033D400FEEC3FFE8DBFFFFFFFFFFFFFE08883FB96
:1033E400BBEFFB98EFFBBEEFFB88EF1FFFF81FFF5F
:1033F400F81FFFF8180018008C05FFFF00001800E4
:103404001800FC04FFFF00000000FFFF00000000A4
:1034140000000000000000000000000000000000A8
:10342400000000000000021F11051F11051F1102FA
:1034340012041000110011001102170012001100F3
:1034440011001100190012031100110217001200DB
:1034540011001100130017001200110011001102D5
:103464001F1F1100100211031C0010001300110093
:103474001C001002110011001C00120011031C009A
:103484001002110011001F1F1F1804100210021057
:103494000416001200120014001800120111021286
:1034A4000018001200140012001800120210021278
:1034B4000013021F11051F11051F11021800180027
:1034C4000606E8050000FFFF000000000000000001
:1034D40000000000000000000000000000000000E8
:1034E4000000180018004405A406021F11051F114E
:1034F400051F11021204100011001100110217001F
:103504001200110011001100190012031100110220
:10351400170012001100110013001700120011000F
:10352400110011021F1F1100100211031C001000D2
:10353400130011001C001002110011001C001200E5
:1035440011031C001002110011001F1F1F1804108A
:1035540002100210041600120012001400180012C7
:1035640001110212001800120014001200180012B7
:10357400021002120013021F11051F11051F110270
:1035840018001800CA06DA0518001800F8058E0697
:103594000000FFFF00000000000000000000000029
:1035A4000000000000000000000000000000000116
:1035B400111111111111111110000001111111112A
:1035C400111111111000000111111111111111111A
:1035D400100011100000101101101100011111113F
:1035E40010111011011011011111111110111000FD
:1035F40001101100011111111011101101101111FC
:1036040001111111101110110110110001111111EA
:1036140011111111111111111111111111101000A9
:1036240011000011111111111110101111011011BB
:10363400111111111110100011011011111111119A
:10364400111011101100001111111111111010009D
:103654001101101111111111111111111111111167
:103664001111111111111111111111111111111047
:1036740000001000100010000011111110111011A1
:10368400101111101111111110111001100011104D
:10369400111111111011101111101110111111111A
:1036A400101110001000111011110001111111114D
:1036B4001111111110000001111111111111111129
:1036C4001000000111111111111111111000180035
:1036D40018008E0770070000FFFF000000000000C4
:1036E40000000000000000000000000000000000D6
:1036F4000000000018001800AC06B6080001111103
:1037040011111111111110000001111111111111D8
:1037140011111000000111111111111111111000DA
:1037240011100000101101101100011111111011DC
:1037340010110110110111111111101110000110BB
:1037440011000111111110111011011011110111A9
:103754001111101110110110110001111111111189
:103764001111111111111111111111101000110069
:103774000011111111111110101111011011111159
:10378400111111101000110110111111111111104A
:10379400111011000011111111111110100011015B
:1037A4001011111111111111111111111111111106
:1037B4001111111111111111111111111110000018
:1037C400100010001000001111111011101110112F
:1037D40011101111111110111001100011101111FB
:1037E40011111011101111101110111111111011CA
:1037F40010001000111011110001111111111111FB
:1038040011111000000111111111111111111000E9
:1038140000011111111111111111100018001800DB
:10382400DC08CC0718001800EA070A090025270558
:1038340010093A784D05180D383A1F1F1A180A0F47
:0A384400064587320A070207050057
:00000001FF
